{
  "abi": [
    {
      "inputs": [
        {
          "internalType": "address",
          "name": "_implementation",
          "type": "address"
        },
        {
          "internalType": "contract EditionMetadataRenderer",
          "name": "_editionMetadataRenderer",
          "type": "address"
        },
        {
          "internalType": "contract DropMetadataRenderer",
          "name": "_dropMetadataRenderer",
          "type": "address"
        }
      ],
      "stateMutability": "nonpayable",
      "type": "constructor"
    },
    {
      "anonymous": false,
      "inputs": [
        {
          "indexed": false,
          "internalType": "address",
          "name": "previousAdmin",
          "type": "address"
        },
        {
          "indexed": false,
          "internalType": "address",
          "name": "newAdmin",
          "type": "address"
        }
      ],
      "name": "AdminChanged",
      "type": "event"
    },
    {
      "anonymous": false,
      "inputs": [
        {
          "indexed": true,
          "internalType": "address",
          "name": "beacon",
          "type": "address"
        }
      ],
      "name": "BeaconUpgraded",
      "type": "event"
    },
    {
      "anonymous": false,
      "inputs": [
        {
          "indexed": true,
          "internalType": "address",
          "name": "creator",
          "type": "address"
        },
        {
          "indexed": true,
          "internalType": "address",
          "name": "editionContractAddress",
          "type": "address"
        },
        {
          "indexed": false,
          "internalType": "uint256",
          "name": "editionSize",
          "type": "uint256"
        }
      ],
      "name": "CreatedDrop",
      "type": "event"
    },
    {
      "anonymous": false,
      "inputs": [
        {
          "indexed": true,
          "internalType": "address",
          "name": "previousOwner",
          "type": "address"
        },
        {
          "indexed": true,
          "internalType": "address",
          "name": "newOwner",
          "type": "address"
        }
      ],
      "name": "OwnershipTransferred",
      "type": "event"
    },
    {
      "anonymous": false,
      "inputs": [
        {
          "indexed": true,
          "internalType": "address",
          "name": "implementation",
          "type": "address"
        }
      ],
      "name": "Upgraded",
      "type": "event"
    },
    {
      "inputs": [],
      "name": "contractVersion",
      "outputs": [
        {
          "internalType": "uint32",
          "name": "",
          "type": "uint32"
        }
      ],
      "stateMutability": "view",
      "type": "function"
    },
    {
      "inputs": [
        {
          "internalType": "string",
          "name": "name",
          "type": "string"
        },
        {
          "internalType": "string",
          "name": "symbol",
          "type": "string"
        },
        {
          "internalType": "address",
          "name": "defaultAdmin",
          "type": "address"
        },
        {
          "internalType": "uint64",
          "name": "editionSize",
          "type": "uint64"
        },
        {
          "internalType": "uint16",
          "name": "royaltyBPS",
          "type": "uint16"
        },
        {
          "internalType": "address payable",
          "name": "fundsRecipient",
          "type": "address"
        },
        {
          "internalType": "bytes[]",
          "name": "setupCalls",
          "type": "bytes[]"
        },
        {
          "internalType": "contract IMetadataRenderer",
          "name": "metadataRenderer",
          "type": "address"
        },
        {
          "internalType": "bytes",
          "name": "metadataInitializer",
          "type": "bytes"
        }
      ],
      "name": "createAndConfigureDrop",
      "outputs": [
        {
          "internalType": "address payable",
          "name": "newDropAddress",
          "type": "address"
        }
      ],
      "stateMutability": "nonpayable",
      "type": "function"
    },
    {
      "inputs": [
        {
          "internalType": "string",
          "name": "name",
          "type": "string"
        },
        {
          "internalType": "string",
          "name": "symbol",
          "type": "string"
        },
        {
          "internalType": "address",
          "name": "defaultAdmin",
          "type": "address"
        },
        {
          "internalType": "uint64",
          "name": "editionSize",
          "type": "uint64"
        },
        {
          "internalType": "uint16",
          "name": "royaltyBPS",
          "type": "uint16"
        },
        {
          "internalType": "address payable",
          "name": "fundsRecipient",
          "type": "address"
        },
        {
          "components": [
            {
              "internalType": "uint104",
              "name": "publicSalePrice",
              "type": "uint104"
            },
            {
              "internalType": "uint32",
              "name": "maxSalePurchasePerAddress",
              "type": "uint32"
            },
            {
              "internalType": "uint64",
              "name": "publicSaleStart",
              "type": "uint64"
            },
            {
              "internalType": "uint64",
              "name": "publicSaleEnd",
              "type": "uint64"
            },
            {
              "internalType": "uint64",
              "name": "presaleStart",
              "type": "uint64"
            },
            {
              "internalType": "uint64",
              "name": "presaleEnd",
              "type": "uint64"
            },
            {
              "internalType": "bytes32",
              "name": "presaleMerkleRoot",
              "type": "bytes32"
            }
          ],
          "internalType": "struct IERC721Drop.SalesConfiguration",
          "name": "saleConfig",
          "type": "tuple"
        },
        {
          "internalType": "string",
          "name": "metadataURIBase",
          "type": "string"
        },
        {
          "internalType": "string",
          "name": "metadataContractURI",
          "type": "string"
        }
      ],
      "name": "createDrop",
      "outputs": [
        {
          "internalType": "address",
          "name": "",
          "type": "address"
        }
      ],
      "stateMutability": "nonpayable",
      "type": "function"
    },
    {
      "inputs": [
        {
          "internalType": "string",
          "name": "name",
          "type": "string"
        },
        {
          "internalType": "string",
          "name": "symbol",
          "type": "string"
        },
        {
          "internalType": "uint64",
          "name": "editionSize",
          "type": "uint64"
        },
        {
          "internalType": "uint16",
          "name": "royaltyBPS",
          "type": "uint16"
        },
        {
          "internalType": "address payable",
          "name": "fundsRecipient",
          "type": "address"
        },
        {
          "internalType": "address",
          "name": "defaultAdmin",
          "type": "address"
        },
        {
          "components": [
            {
              "internalType": "uint104",
              "name": "publicSalePrice",
              "type": "uint104"
            },
            {
              "internalType": "uint32",
              "name": "maxSalePurchasePerAddress",
              "type": "uint32"
            },
            {
              "internalType": "uint64",
              "name": "publicSaleStart",
              "type": "uint64"
            },
            {
              "internalType": "uint64",
              "name": "publicSaleEnd",
              "type": "uint64"
            },
            {
              "internalType": "uint64",
              "name": "presaleStart",
              "type": "uint64"
            },
            {
              "internalType": "uint64",
              "name": "presaleEnd",
              "type": "uint64"
            },
            {
              "internalType": "bytes32",
              "name": "presaleMerkleRoot",
              "type": "bytes32"
            }
          ],
          "internalType": "struct IERC721Drop.SalesConfiguration",
          "name": "saleConfig",
          "type": "tuple"
        },
        {
          "internalType": "string",
          "name": "description",
          "type": "string"
        },
        {
          "internalType": "string",
          "name": "animationURI",
          "type": "string"
        },
        {
          "internalType": "string",
          "name": "imageURI",
          "type": "string"
        }
      ],
      "name": "createEdition",
      "outputs": [
        {
          "internalType": "address",
          "name": "",
          "type": "address"
        }
      ],
      "stateMutability": "nonpayable",
      "type": "function"
    },
    {
      "inputs": [],
      "name": "dropMetadataRenderer",
      "outputs": [
        {
          "internalType": "contract DropMetadataRenderer",
          "name": "",
          "type": "address"
        }
      ],
      "stateMutability": "view",
      "type": "function"
    },
    {
      "inputs": [],
      "name": "editionMetadataRenderer",
      "outputs": [
        {
          "internalType": "contract EditionMetadataRenderer",
          "name": "",
          "type": "address"
        }
      ],
      "stateMutability": "view",
      "type": "function"
    },
    {
      "inputs": [],
      "name": "implementation",
      "outputs": [
        {
          "internalType": "address",
          "name": "",
          "type": "address"
        }
      ],
      "stateMutability": "view",
      "type": "function"
    },
    {
      "inputs": [],
      "name": "initialize",
      "outputs": [],
      "stateMutability": "nonpayable",
      "type": "function"
    },
    {
      "inputs": [],
      "name": "owner",
      "outputs": [
        {
          "internalType": "address",
          "name": "",
          "type": "address"
        }
      ],
      "stateMutability": "view",
      "type": "function"
    },
    {
      "inputs": [],
      "name": "proxiableUUID",
      "outputs": [
        {
          "internalType": "bytes32",
          "name": "",
          "type": "bytes32"
        }
      ],
      "stateMutability": "view",
      "type": "function"
    },
    {
      "inputs": [],
      "name": "renounceOwnership",
      "outputs": [],
      "stateMutability": "nonpayable",
      "type": "function"
    },
    {
      "inputs": [
        {
          "internalType": "string",
          "name": "name",
          "type": "string"
        },
        {
          "internalType": "string",
          "name": "symbol",
          "type": "string"
        },
        {
          "internalType": "address",
          "name": "defaultAdmin",
          "type": "address"
        },
        {
          "internalType": "uint64",
          "name": "editionSize",
          "type": "uint64"
        },
        {
          "internalType": "uint16",
          "name": "royaltyBPS",
          "type": "uint16"
        },
        {
          "internalType": "address payable",
          "name": "fundsRecipient",
          "type": "address"
        },
        {
          "components": [
            {
              "internalType": "uint104",
              "name": "publicSalePrice",
              "type": "uint104"
            },
            {
              "internalType": "uint32",
              "name": "maxSalePurchasePerAddress",
              "type": "uint32"
            },
            {
              "internalType": "uint64",
              "name": "publicSaleStart",
              "type": "uint64"
            },
            {
              "internalType": "uint64",
              "name": "publicSaleEnd",
              "type": "uint64"
            },
            {
              "internalType": "uint64",
              "name": "presaleStart",
              "type": "uint64"
            },
            {
              "internalType": "uint64",
              "name": "presaleEnd",
              "type": "uint64"
            },
            {
              "internalType": "bytes32",
              "name": "presaleMerkleRoot",
              "type": "bytes32"
            }
          ],
          "internalType": "struct IERC721Drop.SalesConfiguration",
          "name": "saleConfig",
          "type": "tuple"
        },
        {
          "internalType": "contract IMetadataRenderer",
          "name": "metadataRenderer",
          "type": "address"
        },
        {
          "internalType": "bytes",
          "name": "metadataInitializer",
          "type": "bytes"
        }
      ],
      "name": "setupDropsContract",
      "outputs": [
        {
          "internalType": "address",
          "name": "",
          "type": "address"
        }
      ],
      "stateMutability": "nonpayable",
      "type": "function"
    },
    {
      "inputs": [
        {
          "internalType": "address",
          "name": "newOwner",
          "type": "address"
        }
      ],
      "name": "transferOwnership",
      "outputs": [],
      "stateMutability": "nonpayable",
      "type": "function"
    },
    {
      "inputs": [
        {
          "internalType": "address",
          "name": "newImplementation",
          "type": "address"
        }
      ],
      "name": "upgradeTo",
      "outputs": [],
      "stateMutability": "nonpayable",
      "type": "function"
    },
    {
      "inputs": [
        {
          "internalType": "address",
          "name": "newImplementation",
          "type": "address"
        },
        {
          "internalType": "bytes",
          "name": "data",
          "type": "bytes"
        }
      ],
      "name": "upgradeToAndCall",
      "outputs": [],
      "stateMutability": "payable",
      "type": "function"
    }
  ],
  "bytecode": {
    "object": "0x610120604052306080523480156200001657600080fd5b50604051620028dd380380620028dd83398101604081905262000039916200017e565b600560a05260408051808201909152601381527243616e6e6f742062652030206164647265737360681b60208201526001600160a01b0384166200009b5760405162461bcd60e51b8152600401620000929190620001d2565b60405180910390fd5b5060408051808201909152601381527243616e6e6f742062652030206164647265737360681b60208201526001600160a01b038316620000f05760405162461bcd60e51b8152600401620000929190620001d2565b5060408051808201909152601381527243616e6e6f742062652030206164647265737360681b60208201526001600160a01b038216620001455760405162461bcd60e51b8152600401620000929190620001d2565b506001600160a01b0392831660c05290821660e052166101005262000222565b6001600160a01b03811681146200017b57600080fd5b50565b6000806000606084860312156200019457600080fd5b8351620001a18162000165565b6020850151909350620001b48162000165565b6040850151909250620001c78162000165565b809150509250925092565b600060208083528351808285015260005b818110156200020157858101830151858201604001528201620001e3565b506000604082860101526040601f19601f8301168501019250505092915050565b60805160a05160c05160e0516101005161264562000298600039600081816101c70152610b2801526000818161027101526107f401526000818161023b01526103750152600061032001526000818161061c015281816106b801528181610834015281816108cc01526109ce01526126456000f3fe608060405260043610620000fb5760003560e01c80635c60da1b11620000955780638129fc1c11620000605780638129fc1c14620002d05780638da5cb5b14620002e8578063a0a8e4601462000308578063f2fde38b146200034b57600080fd5b80635c60da1b1462000227578063686ce435146200025d578063715018a6146200029357806371525d8c14620002ab57600080fd5b80633857fb1311620000d65780633857fb13146200018e5780634abde72914620001b35780634f1ef28614620001e957806352d1902d146200020057600080fd5b806308d6a61314620001005780630d743c7614620001425780633659cfe61462000167575b600080fd5b3480156200010d57600080fd5b50620001256200011f3660046200161d565b62000370565b6040516001600160a01b0390911681526020015b60405180910390f35b3480156200014f57600080fd5b506200012562000161366004620017f8565b6200047e565b3480156200017457600080fd5b506200018c62000186366004620018de565b62000612565b005b3480156200019b57600080fd5b5062000125620001ad366004620018fe565b620007bc565b348015620001c057600080fd5b50620001257f000000000000000000000000000000000000000000000000000000000000000081565b6200018c620001fa36600462001a41565b6200082a565b3480156200020d57600080fd5b5062000218620009c1565b60405190815260200162000139565b3480156200023457600080fd5b50620001257f000000000000000000000000000000000000000000000000000000000000000081565b3480156200026a57600080fd5b50620001257f000000000000000000000000000000000000000000000000000000000000000081565b348015620002a057600080fd5b506200018c62000a88565b348015620002b857600080fd5b5062000125620002ca36600462001a97565b62000af2565b348015620002dd57600080fd5b506200018c62000b5d565b348015620002f557600080fd5b506033546001600160a01b031662000125565b3480156200031557600080fd5b5060405163ffffffff7f000000000000000000000000000000000000000000000000000000000000000016815260200162000139565b3480156200035857600080fd5b506200018c6200036a366004620018de565b62000c78565b6000807f0000000000000000000000000000000000000000000000000000000000000000604051620003a2906200140a565b6001600160a01b039091168152604060208201819052600090820152606001604051809103906000f080158015620003de573d6000803e3d6000fd5b506040517f41f31f380000000000000000000000000000000000000000000000000000000081529092508291506001600160a01b038216906341f31f38906200043c908e908e908e908c908f908f908e908e908e9060040162001bce565b600060405180830381600087803b1580156200045757600080fd5b505af11580156200046c573d6000803e3d6000fd5b50505050509998505050505050505050565b604080516001808252818301909252600091829190816020015b60608152602001906001900390816200049857505085516020808801516040808a015160608b015160808c015160a08d015160c08e015185516cffffffffffffffffffffffffff90991660248a015263ffffffff909616604489015267ffffffffffffffff93841660648901529183166084880152821660a48701521660c485015260e48085019290925280518085039092018252610104909301909252810180517bffffffffffffffffffffffffffffffffffffffffffffffffffffffff167fffdb716300000000000000000000000000000000000000000000000000000000179052815191925090829060009062000596576200059662001cbc565b60200260200101819052506000620005b68c8c8c8c8c8c888c8c62000370565b60405167ffffffffffffffff8b1681529091506001600160a01b0382169033907fad59ebba8bfb06ba01a615a611467ca3bef86a275bd5e9704d3b295112550ba59060200160405180910390a39b9a5050505050505050505050565b6001600160a01b037f0000000000000000000000000000000000000000000000000000000000000000163003620006b65760405162461bcd60e51b815260206004820152602c60248201527f46756e6374696f6e206d7573742062652063616c6c6564207468726f7567682060448201527f64656c656761746563616c6c000000000000000000000000000000000000000060648201526084015b60405180910390fd5b7f00000000000000000000000000000000000000000000000000000000000000006001600160a01b0316620007127f360894a13ba1a3210667c828492db98dca3e2076cc3735a920a3ca505d382bbc546001600160a01b031690565b6001600160a01b031614620007905760405162461bcd60e51b815260206004820152602c60248201527f46756e6374696f6e206d7573742062652063616c6c6564207468726f7567682060448201527f6163746976652070726f787900000000000000000000000000000000000000006064820152608401620006ad565b6200079b8162000d5d565b60408051600080825260208201909252620007b99183919062000db9565b50565b600080848385604051602001620007d69392919062001ceb565b60405160208183030381529060405290506200081a8c8c898d8d8d8c7f0000000000000000000000000000000000000000000000000000000000000000896200047e565b9c9b505050505050505050505050565b6001600160a01b037f0000000000000000000000000000000000000000000000000000000000000000163003620008ca5760405162461bcd60e51b815260206004820152602c60248201527f46756e6374696f6e206d7573742062652063616c6c6564207468726f7567682060448201527f64656c656761746563616c6c00000000000000000000000000000000000000006064820152608401620006ad565b7f00000000000000000000000000000000000000000000000000000000000000006001600160a01b0316620009267f360894a13ba1a3210667c828492db98dca3e2076cc3735a920a3ca505d382bbc546001600160a01b031690565b6001600160a01b031614620009a45760405162461bcd60e51b815260206004820152602c60248201527f46756e6374696f6e206d7573742062652063616c6c6564207468726f7567682060448201527f6163746976652070726f787900000000000000000000000000000000000000006064820152608401620006ad565b620009af8262000d5d565b620009bd8282600162000db9565b5050565b6000306001600160a01b037f0000000000000000000000000000000000000000000000000000000000000000161462000a635760405162461bcd60e51b815260206004820152603860248201527f555550535570677261646561626c653a206d757374206e6f742062652063616c60448201527f6c6564207468726f7567682064656c656761746563616c6c00000000000000006064820152608401620006ad565b507f360894a13ba1a3210667c828492db98dca3e2076cc3735a920a3ca505d382bbc90565b6033546001600160a01b0316331462000ae45760405162461bcd60e51b815260206004820181905260248201527f4f776e61626c653a2063616c6c6572206973206e6f7420746865206f776e65726044820152606401620006ad565b62000af0600062000f6a565b565b600080838360405160200162000b0a92919062001d34565b604051602081830303815290604052905062000b4e8b8b8b8b8b8b8b7f0000000000000000000000000000000000000000000000000000000000000000896200047e565b9b9a5050505050505050505050565b600054610100900460ff1662000b7a5760005460ff161562000b7e565b303b155b62000bf25760405162461bcd60e51b815260206004820152602e60248201527f496e697469616c697a61626c653a20636f6e747261637420697320616c72656160448201527f647920696e697469616c697a65640000000000000000000000000000000000006064820152608401620006ad565b600054610100900460ff1615801562000c3257600080547fffffffffffffffffffffffffffffffffffffffffffffffffffffffffffff0000166101011790555b62000c3c62000fd4565b62000c466200105d565b8015620007b957600080547fffffffffffffffffffffffffffffffffffffffffffffffffffffffffffff00ff16905550565b6033546001600160a01b0316331462000cd45760405162461bcd60e51b815260206004820181905260248201527f4f776e61626c653a2063616c6c6572206973206e6f7420746865206f776e65726044820152606401620006ad565b6001600160a01b03811662000d525760405162461bcd60e51b815260206004820152602660248201527f4f776e61626c653a206e6577206f776e657220697320746865207a65726f206160448201527f64647265737300000000000000000000000000000000000000000000000000006064820152608401620006ad565b620007b98162000f6a565b6033546001600160a01b03163314620007b95760405162461bcd60e51b815260206004820181905260248201527f4f776e61626c653a2063616c6c6572206973206e6f7420746865206f776e65726044820152606401620006ad565b7f4910fdfa16fed3260ed0e7147f7cc6da11a60208b5b9406d12a635614ffd91435460ff161562000df45762000def83620010dc565b505050565b826001600160a01b03166352d1902d6040518163ffffffff1660e01b8152600401602060405180830381865afa92505050801562000e51575060408051601f3d908101601f1916820190925262000e4e9181019062001d5d565b60015b62000ec55760405162461bcd60e51b815260206004820152602e60248201527f45524331393637557067726164653a206e657720696d706c656d656e7461746960448201527f6f6e206973206e6f7420555550530000000000000000000000000000000000006064820152608401620006ad565b7f360894a13ba1a3210667c828492db98dca3e2076cc3735a920a3ca505d382bbc811462000f5c5760405162461bcd60e51b815260206004820152602960248201527f45524331393637557067726164653a20756e737570706f727465642070726f7860448201527f6961626c655555494400000000000000000000000000000000000000000000006064820152608401620006ad565b5062000def838383620011b4565b603380546001600160a01b038381167fffffffffffffffffffffffff0000000000000000000000000000000000000000831681179093556040519116919082907f8be0079c531659141344cd1fd0a4f28419497f9722a3daafe3b4186f6b6457e090600090a35050565b600054610100900460ff16620010535760405162461bcd60e51b815260206004820152602b60248201527f496e697469616c697a61626c653a20636f6e7472616374206973206e6f74206960448201527f6e697469616c697a696e670000000000000000000000000000000000000000006064820152608401620006ad565b62000af0620011e5565b600054610100900460ff1662000af05760405162461bcd60e51b815260206004820152602b60248201527f496e697469616c697a61626c653a20636f6e7472616374206973206e6f74206960448201527f6e697469616c697a696e670000000000000000000000000000000000000000006064820152608401620006ad565b6001600160a01b0381163b6200115b5760405162461bcd60e51b815260206004820152602d60248201527f455243313936373a206e657720696d706c656d656e746174696f6e206973206e60448201527f6f74206120636f6e7472616374000000000000000000000000000000000000006064820152608401620006ad565b7f360894a13ba1a3210667c828492db98dca3e2076cc3735a920a3ca505d382bbc80547fffffffffffffffffffffffff0000000000000000000000000000000000000000166001600160a01b0392909216919091179055565b620011bf836200126f565b600082511180620011cd5750805b1562000def57620011df8383620012b1565b50505050565b600054610100900460ff16620012645760405162461bcd60e51b815260206004820152602b60248201527f496e697469616c697a61626c653a20636f6e7472616374206973206e6f74206960448201527f6e697469616c697a696e670000000000000000000000000000000000000000006064820152608401620006ad565b62000af03362000f6a565b6200127a81620010dc565b6040516001600160a01b038216907fbc7cd75a20ee27fd9adebab32041f755214dbc6bffa90cc0225b39da2e5c2d3b90600090a250565b60606001600160a01b0383163b620013325760405162461bcd60e51b815260206004820152602660248201527f416464726573733a2064656c65676174652063616c6c20746f206e6f6e2d636f60448201527f6e747261637400000000000000000000000000000000000000000000000000006064820152608401620006ad565b600080846001600160a01b0316846040516200134f919062001d77565b600060405180830381855af49150503d80600081146200138c576040519150601f19603f3d011682016040523d82523d6000602084013e62001391565b606091505b5091509150620013bc8282604051806060016040528060278152602001620025e960279139620013c5565b95945050505050565b60608315620013d657508162001403565b825115620013e75782518084602001fd5b8160405162461bcd60e51b8152600401620006ad919062001d95565b9392505050565b61083e8062001dab83390190565b7f4e487b7100000000000000000000000000000000000000000000000000000000600052604160045260246000fd5b60405160e0810167ffffffffffffffff811182821017156200146d576200146d62001418565b60405290565b604051601f8201601f1916810167ffffffffffffffff811182821017156200149f576200149f62001418565b604052919050565b600082601f830112620014b957600080fd5b813567ffffffffffffffff811115620014d657620014d662001418565b620014eb6020601f19601f8401160162001473565b8181528460208386010111156200150157600080fd5b816020850160208301376000918101602001919091529392505050565b6001600160a01b0381168114620007b957600080fd5b803562001541816200151e565b919050565b803567ffffffffffffffff811681146200154157600080fd5b803561ffff811681146200154157600080fd5b600082601f8301126200158457600080fd5b8135602067ffffffffffffffff80831115620015a457620015a462001418565b8260051b620015b583820162001473565b9384528581018301938381019088861115620015d057600080fd5b84880192505b858310156200161157823584811115620015f05760008081fd5b620016008a87838c0101620014a7565b8352509184019190840190620015d6565b98975050505050505050565b60008060008060008060008060006101208a8c0312156200163d57600080fd5b893567ffffffffffffffff808211156200165657600080fd5b620016648d838e01620014a7565b9a5060208c01359150808211156200167b57600080fd5b620016898d838e01620014a7565b99506200169960408d0162001534565b9850620016a960608d0162001546565b9750620016b960808d016200155f565b9650620016c960a08d0162001534565b955060c08c0135915080821115620016e057600080fd5b620016ee8d838e0162001572565b9450620016fe60e08d0162001534565b93506101008c01359150808211156200171657600080fd5b50620017258c828d01620014a7565b9150509295985092959850929598565b803563ffffffff811681146200154157600080fd5b600060e082840312156200175d57600080fd5b6200176762001447565b905081356cffffffffffffffffffffffffff811681146200178757600080fd5b8152620017976020830162001735565b6020820152620017aa6040830162001546565b6040820152620017bd6060830162001546565b6060820152620017d06080830162001546565b6080820152620017e360a0830162001546565b60a082015260c082013560c082015292915050565b60008060008060008060008060006101e08a8c0312156200181857600080fd5b893567ffffffffffffffff808211156200183157600080fd5b6200183f8d838e01620014a7565b9a5060208c01359150808211156200185657600080fd5b620018648d838e01620014a7565b99506200187460408d0162001534565b98506200188460608d0162001546565b97506200189460808d016200155f565b9650620018a460a08d0162001534565b9550620018b58d60c08e016200174a565b9450620018c66101a08d0162001534565b93506101c08c01359150808211156200171657600080fd5b600060208284031215620018f157600080fd5b813562001403816200151e565b6000806000806000806000806000806102008b8d0312156200191f57600080fd5b8a3567ffffffffffffffff808211156200193857600080fd5b620019468e838f01620014a7565b9b5060208d01359150808211156200195d57600080fd5b6200196b8e838f01620014a7565b9a506200197b60408e0162001546565b99506200198b60608e016200155f565b98506200199b60808e0162001534565b9750620019ab60a08e0162001534565b9650620019bc8e60c08f016200174a565b95506101a08d0135915080821115620019d457600080fd5b620019e28e838f01620014a7565b94506101c08d0135915080821115620019fa57600080fd5b62001a088e838f01620014a7565b93506101e08d013591508082111562001a2057600080fd5b5062001a2f8d828e01620014a7565b9150509295989b9194979a5092959850565b6000806040838503121562001a5557600080fd5b823562001a62816200151e565b9150602083013567ffffffffffffffff81111562001a7f57600080fd5b62001a8d85828601620014a7565b9150509250929050565b60008060008060008060008060006101e08a8c03121562001ab757600080fd5b893567ffffffffffffffff8082111562001ad057600080fd5b62001ade8d838e01620014a7565b9a5060208c013591508082111562001af557600080fd5b62001b038d838e01620014a7565b995062001b1360408d0162001534565b985062001b2360608d0162001546565b975062001b3360808d016200155f565b965062001b4360a08d0162001534565b955062001b548d60c08e016200174a565b94506101a08c013591508082111562001b6c57600080fd5b620018c68d838e01620014a7565b60005b8381101562001b9757818101518382015260200162001b7d565b50506000910152565b6000815180845262001bba81602086016020860162001b7a565b601f01601f19169290920160200192915050565b600061012080835262001be48184018d62001ba0565b905060208382038185015262001bfb828d62001ba0565b6001600160a01b038c811660408701528b16606086015267ffffffffffffffff8a16608086015261ffff891660a086015284810360c0860152875180825290925081830190600581901b84018301838a0160005b8381101562001c8157601f1987840301855262001c6e83835162001ba0565b9486019492509085019060010162001c4f565b50506001600160a01b03891660e088015286810361010088015262001ca7818962001ba0565b955050505050509a9950505050505050505050565b7f4e487b7100000000000000000000000000000000000000000000000000000000600052603260045260246000fd5b60608152600062001d00606083018662001ba0565b828103602084015262001d14818662001ba0565b9050828103604084015262001d2a818562001ba0565b9695505050505050565b60408152600062001d49604083018562001ba0565b8281036020840152620013bc818562001ba0565b60006020828403121562001d7057600080fd5b5051919050565b6000825162001d8b81846020870162001b7a565b9190910192915050565b60208152600062001403602083018462001ba056fe608060405260405161083e38038061083e83398101604081905261002291610349565b818161004f60017f360894a13ba1a3210667c828492db98dca3e2076cc3735a920a3ca505d382bbd610417565b6000805160206107f78339815191521461006b5761006b610438565b61007782826000610080565b5050505061049d565b610089836100b6565b6000825111806100965750805b156100b1576100af83836100f660201b6100291760201c565b505b505050565b6100bf81610124565b6040516001600160a01b038216907fbc7cd75a20ee27fd9adebab32041f755214dbc6bffa90cc0225b39da2e5c2d3b90600090a250565b606061011b8383604051806060016040528060278152602001610817602791396101e4565b90505b92915050565b610137816102c460201b6100551760201c565b61019e5760405162461bcd60e51b815260206004820152602d60248201527f455243313936373a206e657720696d706c656d656e746174696f6e206973206e60448201526c1bdd08184818dbdb9d1c9858dd609a1b60648201526084015b60405180910390fd5b806101c36000805160206107f783398151915260001b6102d360201b6100711760201c565b80546001600160a01b0319166001600160a01b039290921691909117905550565b60606001600160a01b0384163b61024c5760405162461bcd60e51b815260206004820152602660248201527f416464726573733a2064656c65676174652063616c6c20746f206e6f6e2d636f6044820152651b9d1c9858dd60d21b6064820152608401610195565b600080856001600160a01b031685604051610267919061044e565b600060405180830381855af49150503d80600081146102a2576040519150601f19603f3d011682016040523d82523d6000602084013e6102a7565b606091505b5090925090506102b88282866102d6565b925050505b9392505050565b6001600160a01b03163b151590565b90565b606083156102e55750816102bd565b8251156102f55782518084602001fd5b8160405162461bcd60e51b8152600401610195919061046a565b634e487b7160e01b600052604160045260246000fd5b60005b83811015610340578181015183820152602001610328565b50506000910152565b6000806040838503121561035c57600080fd5b82516001600160a01b038116811461037357600080fd5b60208401519092506001600160401b038082111561039057600080fd5b818501915085601f8301126103a457600080fd5b8151818111156103b6576103b661030f565b604051601f8201601f19908116603f011681019083821181831017156103de576103de61030f565b816040528281528860208487010111156103f757600080fd5b610408836020830160208801610325565b80955050505050509250929050565b8181038181111561011e57634e487b7160e01b600052601160045260246000fd5b634e487b7160e01b600052600160045260246000fd5b60008251610460818460208701610325565b9190910192915050565b6020815260008251806020840152610489816040850160208701610325565b601f01601f19169190910160400192915050565b61034b806104ac6000396000f3fe60806040523661001357610011610017565b005b6100115b610027610022610074565b6100b9565b565b606061004e83836040518060600160405280602781526020016102ef602791396100dd565b9392505050565b73ffffffffffffffffffffffffffffffffffffffff163b151590565b90565b60006100b47f360894a13ba1a3210667c828492db98dca3e2076cc3735a920a3ca505d382bbc5473ffffffffffffffffffffffffffffffffffffffff1690565b905090565b3660008037600080366000845af43d6000803e8080156100d8573d6000f35b3d6000fd5b606073ffffffffffffffffffffffffffffffffffffffff84163b610188576040517f08c379a000000000000000000000000000000000000000000000000000000000815260206004820152602660248201527f416464726573733a2064656c65676174652063616c6c20746f206e6f6e2d636f60448201527f6e7472616374000000000000000000000000000000000000000000000000000060648201526084015b60405180910390fd5b6000808573ffffffffffffffffffffffffffffffffffffffff16856040516101b09190610281565b600060405180830381855af49150503d80600081146101eb576040519150601f19603f3d011682016040523d82523d6000602084013e6101f0565b606091505b509150915061020082828661020a565b9695505050505050565b6060831561021957508161004e565b8251156102295782518084602001fd5b816040517f08c379a000000000000000000000000000000000000000000000000000000000815260040161017f919061029d565b60005b83811015610278578181015183820152602001610260565b50506000910152565b6000825161029381846020870161025d565b9190910192915050565b60208152600082518060208401526102bc81604085016020870161025d565b601f017fffffffffffffffffffffffffffffffffffffffffffffffffffffffffffffffe016919091016040019291505056fe416464726573733a206c6f772d6c6576656c2064656c65676174652063616c6c206661696c6564a26469706673582212200a1f515908eca720d0626de55050e57ca7f3f77dc588a1e49ecd89e037bc548264736f6c63430008110033360894a13ba1a3210667c828492db98dca3e2076cc3735a920a3ca505d382bbc416464726573733a206c6f772d6c6576656c2064656c65676174652063616c6c206661696c6564416464726573733a206c6f772d6c6576656c2064656c65676174652063616c6c206661696c6564a2646970667358221220888ae148c3df644a621ded0bf9fccf365aa18cf49f070c0b3e6b8c608b22342664736f6c63430008110033",
    "linkReferences": {}
  },
  "methodIdentifiers": {
    "contractVersion()": "a0a8e460",
    "createAndConfigureDrop(string,string,address,uint64,uint16,address,bytes[],address,bytes)": "08d6a613",
    "createDrop(string,string,address,uint64,uint16,address,(uint104,uint32,uint64,uint64,uint64,uint64,bytes32),string,string)": "71525d8c",
    "createEdition(string,string,uint64,uint16,address,address,(uint104,uint32,uint64,uint64,uint64,uint64,bytes32),string,string,string)": "3857fb13",
    "dropMetadataRenderer()": "4abde729",
    "editionMetadataRenderer()": "686ce435",
    "implementation()": "5c60da1b",
    "initialize()": "8129fc1c",
    "owner()": "8da5cb5b",
    "proxiableUUID()": "52d1902d",
    "renounceOwnership()": "715018a6",
    "setupDropsContract(string,string,address,uint64,uint16,address,(uint104,uint32,uint64,uint64,uint64,uint64,bytes32),address,bytes)": "0d743c76",
    "transferOwnership(address)": "f2fde38b",
    "upgradeTo(address)": "3659cfe6",
    "upgradeToAndCall(address,bytes)": "4f1ef286"
  },
  "id": 59
}