{
  "abi": [
    {
      "inputs": [
        {
          "internalType": "contract IZoraFeeManager",
          "name": "_zoraFeeManager",
          "type": "address"
        },
        {
          "internalType": "address",
          "name": "_zoraERC721TransferHelper",
          "type": "address"
        },
        {
          "internalType": "contract IFactoryUpgradeGate",
          "name": "_factoryUpgradeGate",
          "type": "address"
        },
        {
          "internalType": "address",
          "name": "_marketFilterDAOAddress",
          "type": "address"
        }
      ],
      "stateMutability": "nonpayable",
      "type": "constructor"
    },
    {
      "inputs": [
        {
          "internalType": "bytes32",
          "name": "role",
          "type": "bytes32"
        }
      ],
      "name": "Access_MissingRoleOrAdmin",
      "type": "error"
    },
    {
      "inputs": [],
      "name": "Access_OnlyAdmin",
      "type": "error"
    },
    {
      "inputs": [],
      "name": "Access_WithdrawNotAllowed",
      "type": "error"
    },
    {
      "inputs": [
        {
          "internalType": "address",
          "name": "proposedAddress",
          "type": "address"
        }
      ],
      "name": "Admin_InvalidUpgradeAddress",
      "type": "error"
    },
    {
      "inputs": [],
      "name": "Admin_UnableToFinalizeNotOpenEdition",
      "type": "error"
    },
    {
      "inputs": [],
      "name": "ApprovalCallerNotOwnerNorApproved",
      "type": "error"
    },
    {
      "inputs": [],
      "name": "ApprovalQueryForNonexistentToken",
      "type": "error"
    },
    {
      "inputs": [],
      "name": "ApprovalToCurrentOwner",
      "type": "error"
    },
    {
      "inputs": [],
      "name": "ApproveToCaller",
      "type": "error"
    },
    {
      "inputs": [],
      "name": "BalanceQueryForZeroAddress",
      "type": "error"
    },
    {
      "inputs": [],
      "name": "ExternalMetadataRenderer_CallFailed",
      "type": "error"
    },
    {
      "inputs": [],
      "name": "MarketFilterDAOAddressNotSupportedForChain",
      "type": "error"
    },
    {
      "inputs": [],
      "name": "MintToZeroAddress",
      "type": "error"
    },
    {
      "inputs": [],
      "name": "MintZeroQuantity",
      "type": "error"
    },
    {
      "inputs": [],
      "name": "Mint_SoldOut",
      "type": "error"
    },
    {
      "inputs": [],
      "name": "ONLY_OWNER",
      "type": "error"
    },
    {
      "inputs": [],
      "name": "ONLY_PENDING_OWNER",
      "type": "error"
    },
    {
      "inputs": [
        {
          "internalType": "address",
          "name": "operator",
          "type": "address"
        }
      ],
      "name": "OperatorNotAllowed",
      "type": "error"
    },
    {
      "inputs": [],
      "name": "OwnerQueryForNonexistentToken",
      "type": "error"
    },
    {
      "inputs": [],
      "name": "Presale_Inactive",
      "type": "error"
    },
    {
      "inputs": [],
      "name": "Presale_MerkleNotApproved",
      "type": "error"
    },
    {
      "inputs": [],
      "name": "Presale_TooManyForAddress",
      "type": "error"
    },
    {
      "inputs": [],
      "name": "Purchase_TooManyForAddress",
      "type": "error"
    },
    {
      "inputs": [
        {
          "internalType": "uint256",
          "name": "correctPrice",
          "type": "uint256"
        }
      ],
      "name": "Purchase_WrongPrice",
      "type": "error"
    },
    {
      "inputs": [],
      "name": "RemoteOperatorFilterRegistryCallFailed",
      "type": "error"
    },
    {
      "inputs": [],
      "name": "Sale_Inactive",
      "type": "error"
    },
    {
      "inputs": [
        {
          "internalType": "uint16",
          "name": "maxRoyaltyBPS",
          "type": "uint16"
        }
      ],
      "name": "Setup_RoyaltyPercentageTooHigh",
      "type": "error"
    },
    {
      "inputs": [],
      "name": "TransferCallerNotOwnerNorApproved",
      "type": "error"
    },
    {
      "inputs": [],
      "name": "TransferFromIncorrectOwner",
      "type": "error"
    },
    {
      "inputs": [],
      "name": "TransferToNonERC721ReceiverImplementer",
      "type": "error"
    },
    {
      "inputs": [],
      "name": "TransferToZeroAddress",
      "type": "error"
    },
    {
      "inputs": [],
      "name": "URIQueryForNonexistentToken",
      "type": "error"
    },
    {
      "inputs": [],
      "name": "Withdraw_FundsSendFailure",
      "type": "error"
    },
    {
      "anonymous": false,
      "inputs": [
        {
          "indexed": false,
          "internalType": "address",
          "name": "previousAdmin",
          "type": "address"
        },
        {
          "indexed": false,
          "internalType": "address",
          "name": "newAdmin",
          "type": "address"
        }
      ],
      "name": "AdminChanged",
      "type": "event"
    },
    {
      "anonymous": false,
      "inputs": [
        {
          "indexed": true,
          "internalType": "address",
          "name": "owner",
          "type": "address"
        },
        {
          "indexed": true,
          "internalType": "address",
          "name": "approved",
          "type": "address"
        },
        {
          "indexed": true,
          "internalType": "uint256",
          "name": "tokenId",
          "type": "uint256"
        }
      ],
      "name": "Approval",
      "type": "event"
    },
    {
      "anonymous": false,
      "inputs": [
        {
          "indexed": true,
          "internalType": "address",
          "name": "owner",
          "type": "address"
        },
        {
          "indexed": true,
          "internalType": "address",
          "name": "operator",
          "type": "address"
        },
        {
          "indexed": false,
          "internalType": "bool",
          "name": "approved",
          "type": "bool"
        }
      ],
      "name": "ApprovalForAll",
      "type": "event"
    },
    {
      "anonymous": false,
      "inputs": [
        {
          "indexed": false,
          "internalType": "uint256",
          "name": "_fromTokenId",
          "type": "uint256"
        },
        {
          "indexed": false,
          "internalType": "uint256",
          "name": "_toTokenId",
          "type": "uint256"
        }
      ],
      "name": "BatchMetadataUpdate",
      "type": "event"
    },
    {
      "anonymous": false,
      "inputs": [
        {
          "indexed": true,
          "internalType": "address",
          "name": "beacon",
          "type": "address"
        }
      ],
      "name": "BeaconUpgraded",
      "type": "event"
    },
    {
      "anonymous": false,
      "inputs": [
        {
          "indexed": true,
          "internalType": "address",
          "name": "source",
          "type": "address"
        },
        {
          "indexed": false,
          "internalType": "uint256",
          "name": "amount",
          "type": "uint256"
        }
      ],
      "name": "FundsReceived",
      "type": "event"
    },
    {
      "anonymous": false,
      "inputs": [
        {
          "indexed": true,
          "internalType": "address",
          "name": "newAddress",
          "type": "address"
        },
        {
          "indexed": true,
          "internalType": "address",
          "name": "changedBy",
          "type": "address"
        }
      ],
      "name": "FundsRecipientChanged",
      "type": "event"
    },
    {
      "anonymous": false,
      "inputs": [
        {
          "indexed": true,
          "internalType": "address",
          "name": "withdrawnBy",
          "type": "address"
        },
        {
          "indexed": true,
          "internalType": "address",
          "name": "withdrawnTo",
          "type": "address"
        },
        {
          "indexed": false,
          "internalType": "uint256",
          "name": "amount",
          "type": "uint256"
        },
        {
          "indexed": false,
          "internalType": "address",
          "name": "feeRecipient",
          "type": "address"
        },
        {
          "indexed": false,
          "internalType": "uint256",
          "name": "feeAmount",
          "type": "uint256"
        }
      ],
      "name": "FundsWithdrawn",
      "type": "event"
    },
    {
      "anonymous": false,
      "inputs": [
        {
          "indexed": false,
          "internalType": "uint256",
          "name": "_tokenId",
          "type": "uint256"
        }
      ],
      "name": "MetadataUpdate",
      "type": "event"
    },
    {
      "anonymous": false,
      "inputs": [
        {
          "indexed": true,
          "internalType": "address",
          "name": "sender",
          "type": "address"
        },
        {
          "indexed": false,
          "internalType": "uint256",
          "name": "numberOfMints",
          "type": "uint256"
        }
      ],
      "name": "OpenMintFinalized",
      "type": "event"
    },
    {
      "anonymous": false,
      "inputs": [
        {
          "indexed": true,
          "internalType": "address",
          "name": "previousOwner",
          "type": "address"
        },
        {
          "indexed": true,
          "internalType": "address",
          "name": "potentialNewOwner",
          "type": "address"
        }
      ],
      "name": "OwnerCanceled",
      "type": "event"
    },
    {
      "anonymous": false,
      "inputs": [
        {
          "indexed": true,
          "internalType": "address",
          "name": "previousOwner",
          "type": "address"
        },
        {
          "indexed": true,
          "internalType": "address",
          "name": "potentialNewOwner",
          "type": "address"
        }
      ],
      "name": "OwnerPending",
      "type": "event"
    },
    {
      "anonymous": false,
      "inputs": [
        {
          "indexed": true,
          "internalType": "address",
          "name": "previousOwner",
          "type": "address"
        },
        {
          "indexed": true,
          "internalType": "address",
          "name": "newOwner",
          "type": "address"
        }
      ],
      "name": "OwnershipTransferred",
      "type": "event"
    },
    {
      "anonymous": false,
      "inputs": [
        {
          "indexed": true,
          "internalType": "bytes32",
          "name": "role",
          "type": "bytes32"
        },
        {
          "indexed": true,
          "internalType": "bytes32",
          "name": "previousAdminRole",
          "type": "bytes32"
        },
        {
          "indexed": true,
          "internalType": "bytes32",
          "name": "newAdminRole",
          "type": "bytes32"
        }
      ],
      "name": "RoleAdminChanged",
      "type": "event"
    },
    {
      "anonymous": false,
      "inputs": [
        {
          "indexed": true,
          "internalType": "bytes32",
          "name": "role",
          "type": "bytes32"
        },
        {
          "indexed": true,
          "internalType": "address",
          "name": "account",
          "type": "address"
        },
        {
          "indexed": true,
          "internalType": "address",
          "name": "sender",
          "type": "address"
        }
      ],
      "name": "RoleGranted",
      "type": "event"
    },
    {
      "anonymous": false,
      "inputs": [
        {
          "indexed": true,
          "internalType": "bytes32",
          "name": "role",
          "type": "bytes32"
        },
        {
          "indexed": true,
          "internalType": "address",
          "name": "account",
          "type": "address"
        },
        {
          "indexed": true,
          "internalType": "address",
          "name": "sender",
          "type": "address"
        }
      ],
      "name": "RoleRevoked",
      "type": "event"
    },
    {
      "anonymous": false,
      "inputs": [
        {
          "indexed": true,
          "internalType": "address",
          "name": "to",
          "type": "address"
        },
        {
          "indexed": true,
          "internalType": "uint256",
          "name": "quantity",
          "type": "uint256"
        },
        {
          "indexed": true,
          "internalType": "uint256",
          "name": "pricePerToken",
          "type": "uint256"
        },
        {
          "indexed": false,
          "internalType": "uint256",
          "name": "firstPurchasedTokenId",
          "type": "uint256"
        }
      ],
      "name": "Sale",
      "type": "event"
    },
    {
      "anonymous": false,
      "inputs": [
        {
          "indexed": true,
          "internalType": "address",
          "name": "changedBy",
          "type": "address"
        }
      ],
      "name": "SalesConfigChanged",
      "type": "event"
    },
    {
      "anonymous": false,
      "inputs": [
        {
          "indexed": true,
          "internalType": "address",
          "name": "from",
          "type": "address"
        },
        {
          "indexed": true,
          "internalType": "address",
          "name": "to",
          "type": "address"
        },
        {
          "indexed": true,
          "internalType": "uint256",
          "name": "tokenId",
          "type": "uint256"
        }
      ],
      "name": "Transfer",
      "type": "event"
    },
    {
      "anonymous": false,
      "inputs": [
        {
          "indexed": false,
          "internalType": "address",
          "name": "sender",
          "type": "address"
        },
        {
          "indexed": false,
          "internalType": "contract IMetadataRenderer",
          "name": "renderer",
          "type": "address"
        }
      ],
      "name": "UpdatedMetadataRenderer",
      "type": "event"
    },
    {
      "anonymous": false,
      "inputs": [
        {
          "indexed": true,
          "internalType": "address",
          "name": "implementation",
          "type": "address"
        }
      ],
      "name": "Upgraded",
      "type": "event"
    },
    {
      "inputs": [],
      "name": "DEFAULT_ADMIN_ROLE",
      "outputs": [
        {
          "internalType": "bytes32",
          "name": "",
          "type": "bytes32"
        }
      ],
      "stateMutability": "view",
      "type": "function"
    },
    {
      "inputs": [],
      "name": "MINTER_ROLE",
      "outputs": [
        {
          "internalType": "bytes32",
          "name": "",
          "type": "bytes32"
        }
      ],
      "stateMutability": "view",
      "type": "function"
    },
    {
      "inputs": [],
      "name": "SALES_MANAGER_ROLE",
      "outputs": [
        {
          "internalType": "bytes32",
          "name": "",
          "type": "bytes32"
        }
      ],
      "stateMutability": "view",
      "type": "function"
    },
    {
      "inputs": [
        {
          "internalType": "address",
          "name": "recipient",
          "type": "address"
        },
        {
          "internalType": "uint256",
          "name": "quantity",
          "type": "uint256"
        }
      ],
      "name": "adminMint",
      "outputs": [
        {
          "internalType": "uint256",
          "name": "",
          "type": "uint256"
        }
      ],
      "stateMutability": "nonpayable",
      "type": "function"
    },
    {
      "inputs": [
        {
          "internalType": "address[]",
          "name": "recipients",
          "type": "address[]"
        }
      ],
      "name": "adminMintAirdrop",
      "outputs": [
        {
          "internalType": "uint256",
          "name": "",
          "type": "uint256"
        }
      ],
      "stateMutability": "nonpayable",
      "type": "function"
    },
    {
      "inputs": [
        {
          "internalType": "address",
          "name": "to",
          "type": "address"
        },
        {
          "internalType": "uint256",
          "name": "tokenId",
          "type": "uint256"
        }
      ],
      "name": "approve",
      "outputs": [],
      "stateMutability": "nonpayable",
      "type": "function"
    },
    {
      "inputs": [
        {
          "internalType": "address",
          "name": "owner",
          "type": "address"
        }
      ],
      "name": "balanceOf",
      "outputs": [
        {
          "internalType": "uint256",
          "name": "",
          "type": "uint256"
        }
      ],
      "stateMutability": "view",
      "type": "function"
    },
    {
      "inputs": [
        {
          "internalType": "uint256",
          "name": "tokenId",
          "type": "uint256"
        }
      ],
      "name": "burn",
      "outputs": [],
      "stateMutability": "nonpayable",
      "type": "function"
    },
    {
      "inputs": [
        {
          "internalType": "bytes",
          "name": "data",
          "type": "bytes"
        }
      ],
      "name": "callMetadataRenderer",
      "outputs": [
        {
          "internalType": "bytes",
          "name": "",
          "type": "bytes"
        }
      ],
      "stateMutability": "nonpayable",
      "type": "function"
    },
    {
      "inputs": [],
      "name": "config",
      "outputs": [
        {
          "internalType": "contract IMetadataRenderer",
          "name": "metadataRenderer",
          "type": "address"
        },
        {
          "internalType": "uint64",
          "name": "editionSize",
          "type": "uint64"
        },
        {
          "internalType": "uint16",
          "name": "royaltyBPS",
          "type": "uint16"
        },
        {
          "internalType": "address payable",
          "name": "fundsRecipient",
          "type": "address"
        }
      ],
      "stateMutability": "view",
      "type": "function"
    },
    {
      "inputs": [],
      "name": "contractURI",
      "outputs": [
        {
          "internalType": "string",
          "name": "",
          "type": "string"
        }
      ],
      "stateMutability": "view",
      "type": "function"
    },
    {
      "inputs": [],
      "name": "contractVersion",
      "outputs": [
        {
          "internalType": "uint32",
          "name": "",
          "type": "uint32"
        }
      ],
      "stateMutability": "view",
      "type": "function"
    },
    {
      "inputs": [],
      "name": "finalizeOpenEdition",
      "outputs": [],
      "stateMutability": "nonpayable",
      "type": "function"
    },
    {
      "inputs": [
        {
          "internalType": "uint256",
          "name": "tokenId",
          "type": "uint256"
        }
      ],
      "name": "getApproved",
      "outputs": [
        {
          "internalType": "address",
          "name": "",
          "type": "address"
        }
      ],
      "stateMutability": "view",
      "type": "function"
    },
    {
      "inputs": [
        {
          "internalType": "bytes32",
          "name": "role",
          "type": "bytes32"
        }
      ],
      "name": "getRoleAdmin",
      "outputs": [
        {
          "internalType": "bytes32",
          "name": "",
          "type": "bytes32"
        }
      ],
      "stateMutability": "view",
      "type": "function"
    },
    {
      "inputs": [
        {
          "internalType": "bytes32",
          "name": "role",
          "type": "bytes32"
        },
        {
          "internalType": "address",
          "name": "account",
          "type": "address"
        }
      ],
      "name": "grantRole",
      "outputs": [],
      "stateMutability": "nonpayable",
      "type": "function"
    },
    {
      "inputs": [
        {
          "internalType": "bytes32",
          "name": "role",
          "type": "bytes32"
        },
        {
          "internalType": "address",
          "name": "account",
          "type": "address"
        }
      ],
      "name": "hasRole",
      "outputs": [
        {
          "internalType": "bool",
          "name": "",
          "type": "bool"
        }
      ],
      "stateMutability": "view",
      "type": "function"
    },
    {
      "inputs": [
        {
          "internalType": "string",
          "name": "_contractName",
          "type": "string"
        },
        {
          "internalType": "string",
          "name": "_contractSymbol",
          "type": "string"
        },
        {
          "internalType": "address",
          "name": "_initialOwner",
          "type": "address"
        },
        {
          "internalType": "address payable",
          "name": "_fundsRecipient",
          "type": "address"
        },
        {
          "internalType": "uint64",
          "name": "_editionSize",
          "type": "uint64"
        },
        {
          "internalType": "uint16",
          "name": "_royaltyBPS",
          "type": "uint16"
        },
        {
          "internalType": "bytes[]",
          "name": "_setupCalls",
          "type": "bytes[]"
        },
        {
          "internalType": "contract IMetadataRenderer",
          "name": "_metadataRenderer",
          "type": "address"
        },
        {
          "internalType": "bytes",
          "name": "_metadataRendererInit",
          "type": "bytes"
        }
      ],
      "name": "initialize",
      "outputs": [],
      "stateMutability": "nonpayable",
      "type": "function"
    },
    {
      "inputs": [
        {
          "internalType": "address",
          "name": "user",
          "type": "address"
        }
      ],
      "name": "isAdmin",
      "outputs": [
        {
          "internalType": "bool",
          "name": "",
          "type": "bool"
        }
      ],
      "stateMutability": "view",
      "type": "function"
    },
    {
      "inputs": [
        {
          "internalType": "address",
          "name": "nftOwner",
          "type": "address"
        },
        {
          "internalType": "address",
          "name": "operator",
          "type": "address"
        }
      ],
      "name": "isApprovedForAll",
      "outputs": [
        {
          "internalType": "bool",
          "name": "",
          "type": "bool"
        }
      ],
      "stateMutability": "view",
      "type": "function"
    },
    {
      "inputs": [
        {
          "internalType": "bool",
          "name": "enable",
          "type": "bool"
        }
      ],
      "name": "manageMarketFilterDAOSubscription",
      "outputs": [],
      "stateMutability": "nonpayable",
      "type": "function"
    },
    {
      "inputs": [],
      "name": "metadataRenderer",
      "outputs": [
        {
          "internalType": "contract IMetadataRenderer",
          "name": "",
          "type": "address"
        }
      ],
      "stateMutability": "view",
      "type": "function"
    },
    {
      "inputs": [
        {
          "internalType": "address",
          "name": "minter",
          "type": "address"
        }
      ],
      "name": "mintedPerAddress",
      "outputs": [
        {
          "components": [
            {
              "internalType": "uint256",
              "name": "totalMints",
              "type": "uint256"
            },
            {
              "internalType": "uint256",
              "name": "presaleMints",
              "type": "uint256"
            },
            {
              "internalType": "uint256",
              "name": "publicMints",
              "type": "uint256"
            }
          ],
          "internalType": "struct IERC721Drop.AddressMintDetails",
          "name": "",
          "type": "tuple"
        }
      ],
      "stateMutability": "view",
      "type": "function"
    },
    {
      "inputs": [
        {
          "internalType": "bytes[]",
          "name": "data",
          "type": "bytes[]"
        }
      ],
      "name": "multicall",
      "outputs": [
        {
          "internalType": "bytes[]",
          "name": "results",
          "type": "bytes[]"
        }
      ],
      "stateMutability": "nonpayable",
      "type": "function"
    },
    {
      "inputs": [],
      "name": "name",
      "outputs": [
        {
          "internalType": "string",
          "name": "",
          "type": "string"
        }
      ],
      "stateMutability": "view",
      "type": "function"
    },
    {
      "inputs": [],
      "name": "owner",
      "outputs": [
        {
          "internalType": "address",
          "name": "",
          "type": "address"
        }
      ],
      "stateMutability": "view",
      "type": "function"
    },
    {
      "inputs": [
        {
          "internalType": "uint256",
          "name": "tokenId",
          "type": "uint256"
        }
      ],
      "name": "ownerOf",
      "outputs": [
        {
          "internalType": "address",
          "name": "",
          "type": "address"
        }
      ],
      "stateMutability": "view",
      "type": "function"
    },
    {
      "inputs": [
        {
          "internalType": "address",
          "name": "",
          "type": "address"
        }
      ],
      "name": "presaleMintsByAddress",
      "outputs": [
        {
          "internalType": "uint256",
          "name": "",
          "type": "uint256"
        }
      ],
      "stateMutability": "view",
      "type": "function"
    },
    {
      "inputs": [],
      "name": "proxiableUUID",
      "outputs": [
        {
          "internalType": "bytes32",
          "name": "",
          "type": "bytes32"
        }
      ],
      "stateMutability": "view",
      "type": "function"
    },
    {
      "inputs": [
        {
          "internalType": "uint256",
          "name": "quantity",
          "type": "uint256"
        }
      ],
      "name": "purchase",
      "outputs": [
        {
          "internalType": "uint256",
          "name": "",
          "type": "uint256"
        }
      ],
      "stateMutability": "payable",
      "type": "function"
    },
    {
      "inputs": [
        {
          "internalType": "uint256",
          "name": "quantity",
          "type": "uint256"
        },
        {
          "internalType": "uint256",
          "name": "maxQuantity",
          "type": "uint256"
        },
        {
          "internalType": "uint256",
          "name": "pricePerToken",
          "type": "uint256"
        },
        {
          "internalType": "bytes32[]",
          "name": "merkleProof",
          "type": "bytes32[]"
        }
      ],
      "name": "purchasePresale",
      "outputs": [
        {
          "internalType": "uint256",
          "name": "",
          "type": "uint256"
        }
      ],
      "stateMutability": "payable",
      "type": "function"
    },
    {
      "inputs": [
        {
          "internalType": "bytes32",
          "name": "role",
          "type": "bytes32"
        },
        {
          "internalType": "address",
          "name": "account",
          "type": "address"
        }
      ],
      "name": "renounceRole",
      "outputs": [],
      "stateMutability": "nonpayable",
      "type": "function"
    },
    {
      "inputs": [
        {
          "internalType": "bytes32",
          "name": "role",
          "type": "bytes32"
        },
        {
          "internalType": "address",
          "name": "account",
          "type": "address"
        }
      ],
      "name": "revokeRole",
      "outputs": [],
      "stateMutability": "nonpayable",
      "type": "function"
    },
    {
      "inputs": [
        {
          "internalType": "uint256",
          "name": "",
          "type": "uint256"
        },
        {
          "internalType": "uint256",
          "name": "_salePrice",
          "type": "uint256"
        }
      ],
      "name": "royaltyInfo",
      "outputs": [
        {
          "internalType": "address",
          "name": "receiver",
          "type": "address"
        },
        {
          "internalType": "uint256",
          "name": "royaltyAmount",
          "type": "uint256"
        }
      ],
      "stateMutability": "view",
      "type": "function"
    },
    {
      "inputs": [
        {
          "internalType": "address",
          "name": "from",
          "type": "address"
        },
        {
          "internalType": "address",
          "name": "to",
          "type": "address"
        },
        {
          "internalType": "uint256",
          "name": "tokenId",
          "type": "uint256"
        }
      ],
      "name": "safeTransferFrom",
      "outputs": [],
      "stateMutability": "nonpayable",
      "type": "function"
    },
    {
      "inputs": [
        {
          "internalType": "address",
          "name": "from",
          "type": "address"
        },
        {
          "internalType": "address",
          "name": "to",
          "type": "address"
        },
        {
          "internalType": "uint256",
          "name": "tokenId",
          "type": "uint256"
        },
        {
          "internalType": "bytes",
          "name": "_data",
          "type": "bytes"
        }
      ],
      "name": "safeTransferFrom",
      "outputs": [],
      "stateMutability": "nonpayable",
      "type": "function"
    },
    {
      "inputs": [],
      "name": "saleDetails",
      "outputs": [
        {
          "components": [
            {
              "internalType": "bool",
              "name": "publicSaleActive",
              "type": "bool"
            },
            {
              "internalType": "bool",
              "name": "presaleActive",
              "type": "bool"
            },
            {
              "internalType": "uint256",
              "name": "publicSalePrice",
              "type": "uint256"
            },
            {
              "internalType": "uint64",
              "name": "publicSaleStart",
              "type": "uint64"
            },
            {
              "internalType": "uint64",
              "name": "publicSaleEnd",
              "type": "uint64"
            },
            {
              "internalType": "uint64",
              "name": "presaleStart",
              "type": "uint64"
            },
            {
              "internalType": "uint64",
              "name": "presaleEnd",
              "type": "uint64"
            },
            {
              "internalType": "bytes32",
              "name": "presaleMerkleRoot",
              "type": "bytes32"
            },
            {
              "internalType": "uint256",
              "name": "maxSalePurchasePerAddress",
              "type": "uint256"
            },
            {
              "internalType": "uint256",
              "name": "totalMinted",
              "type": "uint256"
            },
            {
              "internalType": "uint256",
              "name": "maxSupply",
              "type": "uint256"
            }
          ],
          "internalType": "struct IERC721Drop.SaleDetails",
          "name": "",
          "type": "tuple"
        }
      ],
      "stateMutability": "view",
      "type": "function"
    },
    {
      "inputs": [],
      "name": "salesConfig",
      "outputs": [
        {
          "internalType": "uint104",
          "name": "publicSalePrice",
          "type": "uint104"
        },
        {
          "internalType": "uint32",
          "name": "maxSalePurchasePerAddress",
          "type": "uint32"
        },
        {
          "internalType": "uint64",
          "name": "publicSaleStart",
          "type": "uint64"
        },
        {
          "internalType": "uint64",
          "name": "publicSaleEnd",
          "type": "uint64"
        },
        {
          "internalType": "uint64",
          "name": "presaleStart",
          "type": "uint64"
        },
        {
          "internalType": "uint64",
          "name": "presaleEnd",
          "type": "uint64"
        },
        {
          "internalType": "bytes32",
          "name": "presaleMerkleRoot",
          "type": "bytes32"
        }
      ],
      "stateMutability": "view",
      "type": "function"
    },
    {
      "inputs": [
        {
          "internalType": "address",
          "name": "operator",
          "type": "address"
        },
        {
          "internalType": "bool",
          "name": "approved",
          "type": "bool"
        }
      ],
      "name": "setApprovalForAll",
      "outputs": [],
      "stateMutability": "nonpayable",
      "type": "function"
    },
    {
      "inputs": [
        {
          "internalType": "address payable",
          "name": "newRecipientAddress",
          "type": "address"
        }
      ],
      "name": "setFundsRecipient",
      "outputs": [],
      "stateMutability": "nonpayable",
      "type": "function"
    },
    {
      "inputs": [
        {
          "internalType": "contract IMetadataRenderer",
          "name": "newRenderer",
          "type": "address"
        },
        {
          "internalType": "bytes",
          "name": "setupRenderer",
          "type": "bytes"
        }
      ],
      "name": "setMetadataRenderer",
      "outputs": [],
      "stateMutability": "nonpayable",
      "type": "function"
    },
    {
      "inputs": [
        {
          "internalType": "address",
          "name": "newOwner",
          "type": "address"
        }
      ],
      "name": "setOwner",
      "outputs": [],
      "stateMutability": "nonpayable",
      "type": "function"
    },
    {
      "inputs": [
        {
          "internalType": "uint104",
          "name": "publicSalePrice",
          "type": "uint104"
        },
        {
          "internalType": "uint32",
          "name": "maxSalePurchasePerAddress",
          "type": "uint32"
        },
        {
          "internalType": "uint64",
          "name": "publicSaleStart",
          "type": "uint64"
        },
        {
          "internalType": "uint64",
          "name": "publicSaleEnd",
          "type": "uint64"
        },
        {
          "internalType": "uint64",
          "name": "presaleStart",
          "type": "uint64"
        },
        {
          "internalType": "uint64",
          "name": "presaleEnd",
          "type": "uint64"
        },
        {
          "internalType": "bytes32",
          "name": "presaleMerkleRoot",
          "type": "bytes32"
        }
      ],
      "name": "setSaleConfiguration",
      "outputs": [],
      "stateMutability": "nonpayable",
      "type": "function"
    },
    {
      "inputs": [
        {
          "internalType": "bytes4",
          "name": "interfaceId",
          "type": "bytes4"
        }
      ],
      "name": "supportsInterface",
      "outputs": [
        {
          "internalType": "bool",
          "name": "",
          "type": "bool"
        }
      ],
      "stateMutability": "view",
      "type": "function"
    },
    {
      "inputs": [],
      "name": "symbol",
      "outputs": [
        {
          "internalType": "string",
          "name": "",
          "type": "string"
        }
      ],
      "stateMutability": "view",
      "type": "function"
    },
    {
      "inputs": [
        {
          "internalType": "uint256",
          "name": "tokenId",
          "type": "uint256"
        }
      ],
      "name": "tokenURI",
      "outputs": [
        {
          "internalType": "string",
          "name": "",
          "type": "string"
        }
      ],
      "stateMutability": "view",
      "type": "function"
    },
    {
      "inputs": [],
      "name": "totalSupply",
      "outputs": [
        {
          "internalType": "uint256",
          "name": "",
          "type": "uint256"
        }
      ],
      "stateMutability": "view",
      "type": "function"
    },
    {
      "inputs": [
        {
          "internalType": "address",
          "name": "from",
          "type": "address"
        },
        {
          "internalType": "address",
          "name": "to",
          "type": "address"
        },
        {
          "internalType": "uint256",
          "name": "tokenId",
          "type": "uint256"
        }
      ],
      "name": "transferFrom",
      "outputs": [],
      "stateMutability": "nonpayable",
      "type": "function"
    },
    {
      "inputs": [
        {
          "internalType": "bytes",
          "name": "args",
          "type": "bytes"
        }
      ],
      "name": "updateMarketFilterSettings",
      "outputs": [
        {
          "internalType": "bytes",
          "name": "",
          "type": "bytes"
        }
      ],
      "stateMutability": "nonpayable",
      "type": "function"
    },
    {
      "inputs": [
        {
          "internalType": "address",
          "name": "newImplementation",
          "type": "address"
        }
      ],
      "name": "upgradeTo",
      "outputs": [],
      "stateMutability": "nonpayable",
      "type": "function"
    },
    {
      "inputs": [
        {
          "internalType": "address",
          "name": "newImplementation",
          "type": "address"
        },
        {
          "internalType": "bytes",
          "name": "data",
          "type": "bytes"
        }
      ],
      "name": "upgradeToAndCall",
      "outputs": [],
      "stateMutability": "payable",
      "type": "function"
    },
    {
      "inputs": [],
      "name": "withdraw",
      "outputs": [],
      "stateMutability": "nonpayable",
      "type": "function"
    },
    {
      "inputs": [
        {
          "internalType": "uint256",
          "name": "amount",
          "type": "uint256"
        }
      ],
      "name": "zoraFeeForAmount",
      "outputs": [
        {
          "internalType": "address payable",
          "name": "",
          "type": "address"
        },
        {
          "internalType": "uint256",
          "name": "",
          "type": "uint256"
        }
      ],
      "stateMutability": "nonpayable",
      "type": "function"
    },
    {
      "inputs": [],
      "name": "zoraFeeManager",
      "outputs": [
        {
          "internalType": "contract IZoraFeeManager",
          "name": "",
          "type": "address"
        }
      ],
      "stateMutability": "view",
      "type": "function"
    },
    {
      "stateMutability": "payable",
      "type": "receive"
    }
  ],
  "bytecode": {
    "object": "0x6101e060405230608052600860c0526203345060e0527ff0887ba65ee2024ea881d91b74c2450ef19e1557f03bed3ea9f16b037cbe2dc9610100527f5ebbf78043a2215b522b1366a193ec74dd1f54e441e841a87b9653246a9c49a6610120526daaeb6d7670e522a718067333cd4e6101c0523480156200007f57600080fd5b506040516200627a3803806200627a833981016040819052620000a291620001e0565b600a60a052600054610100900460ff16620000c45760005460ff1615620000ce565b620000ce6200019a565b620001365760405162461bcd60e51b815260206004820152602e60248201527f496e697469616c697a61626c653a20636f6e747261637420697320616c72656160448201526d191e481a5b9a5d1a585b1a5e995960921b606482015260840160405180910390fd5b600054610100900460ff1615801562000159576000805461ffff19166101011790555b6001600160a01b0380861661018052848116610140528381166101605282166101a05280156200018f576000805461ff00191690555b505050505062000248565b6000620001b230620001b860201b620036b71760201c565b15905090565b6001600160a01b03163b151590565b6001600160a01b0381168114620001dd57600080fd5b50565b60008060008060808587031215620001f757600080fd5b84516200020481620001c7565b60208601519094506200021781620001c7565b60408601519093506200022a81620001c7565b60608601519092506200023d81620001c7565b939692955090935050565b60805160a05160c05160e05161010051610120516101405161016051610180516101a0516101c051615f1862000362600039600081816124d8015281816125b40152818161267b015281816126e90152818161277b01528181612cc401526147c40152600081816124420152818161258c0152612653015260008181610a1201526131ac01526000613d58015260006130fd015260008181610b7c01528181610f06015281816119b901528181611c7e01526134d1015260008181610b28015281816129ea0152612f67015260008181611a860152611b4b015260008181613af10152613b1e01526000610974015260008181611613015281816116a9015281816120ef01528181612185015261227c0152615f186000f3fe6080604052600436106103595760003560e01c806370319970116101bb578063b8ae5a2c116100f7578063e26bd34311610095578063e985e9c51161006f578063e985e9c514610bd3578063ee37be3914610bf3578063efef39a114610c13578063ffdb716314610c2657600080fd5b8063e26bd34314610b6a578063e58306f914610b9e578063e8a3d48514610bbe57600080fd5b8063c87b56dd116100d1578063c87b56dd14610ab4578063d445b97814610ad4578063d539139314610b16578063d547741f14610b4a57600080fd5b8063b8ae5a2c14610a54578063b9e7a58414610a74578063bb20d85714610a9457600080fd5b80639bdb89e511610164578063a22cb4651161013e578063a22cb465146109b3578063ac9650d8146109d3578063b6eb9c8614610a00578063b88d4fde14610a3457600080fd5b80639bdb89e51461093d578063a0a8e4601461095d578063a217fddf1461099e57600080fd5b80638da5cb5b116101955780638da5cb5b146108cc57806391d14854146108e157806395d89b411461092857600080fd5b8063703199701461080657806370a082311461082557806379502c551461084557600080fd5b80632f2ff15d1161029557806341f31f38116102335780634f1ef2861161020d5780634f1ef2861461079057806352d1902d146107a357806361fea768146107b85780636352211e146107e657600080fd5b806341f31f381461073057806342842e0e1461075057806342966c681461077057600080fd5b80633659cfe61161026f5780633659cfe6146106c65780633bcdcc87146106e65780633ccfd60b1461070657806341e96eb11461071b57600080fd5b80632f2ff15d146106645780633474a4a61461068457806336568abe146106a657600080fd5b806318160ddd11610302578063248a9ca3116102dc578063248a9ca3146105c157806324d7806c146105f257806325024a2b146106125780632a55205a1461062557600080fd5b806318160ddd1461048b5780631d2c0b38146104b257806323b872dd146105a157600080fd5b8063095ea7b311610333578063095ea7b31461042957806310a7eb5d1461044b57806313af40351461046b57600080fd5b806301ffc9a71461039a57806306fdde03146103cf578063081812fc146103f157600080fd5b366103955760405134815233907f8e47b87b0ef542cdfa1659c551d88bad38aa7f452d2bbb349ab7530dfec8be8f9060200160405180910390a2005b600080fd5b3480156103a657600080fd5b506103ba6103b53660046151c6565b610c46565b60405190151581526020015b60405180910390f35b3480156103db57600080fd5b506103e4610d27565b6040516103c69190615233565b3480156103fd57600080fd5b5061041161040c366004615246565b610db9565b6040516001600160a01b0390911681526020016103c6565b34801561043557600080fd5b5061044961044436600461527f565b610e16565b005b34801561045757600080fd5b506104496104663660046152ab565b610ed5565b34801561047757600080fd5b506104496104863660046152ab565b610ff7565b34801561049757600080fd5b5060665460655403600019015b6040519081526020016103c6565b3480156104be57600080fd5b50610162546101635461016454610548926cffffffffffffffffffffffffff8116926d0100000000000000000000000000820463ffffffff16927101000000000000000000000000000000000090920467ffffffffffffffff9081169281831692680100000000000000008104831692700100000000000000000000000000000000909104169087565b604080516cffffffffffffffffffffffffff909816885263ffffffff909616602088015267ffffffffffffffff948516958701959095529183166060860152821660808501521660a083015260c082015260e0016103c6565b3480156105ad57600080fd5b506104496105bc3660046152c8565b61106b565b3480156105cd57600080fd5b506104a46105dc366004615246565b600090815261012d602052604090206001015490565b3480156105fe57600080fd5b506103ba61060d3660046152ab565b611076565b6104a461062036600461534e565b6110b6565b34801561063157600080fd5b506106456106403660046153af565b611398565b604080516001600160a01b0390931683526020830191909152016103c6565b34801561067057600080fd5b5061044961067f3660046153d1565b611407565b34801561069057600080fd5b5061069961142d565b6040516103c69190615401565b3480156106b257600080fd5b506104496106c13660046153d1565b61157d565b3480156106d257600080fd5b506104496106e13660046152ab565b611609565b3480156106f257600080fd5b506104496107013660046155aa565b6117a3565b34801561071257600080fd5b5061044961190a565b34801561072757600080fd5b50610449611c4d565b34801561073c57600080fd5b5061044961074b366004615624565b611df9565b34801561075c57600080fd5b5061044961076b3660046152c8565b6120bf565b34801561077c57600080fd5b5061044961078b366004615246565b6120da565b61044961079e3660046155aa565b6120e5565b3480156107af57600080fd5b506104a461226f565b3480156107c457600080fd5b506104a46107d33660046152ab565b6101656020526000908152604090205481565b3480156107f257600080fd5b50610411610801366004615246565b612334565b34801561081257600080fd5b50610160546001600160a01b0316610411565b34801561083157600080fd5b506104a46108403660046152ab565b612346565b34801561085157600080fd5b50610160546101615461088c916001600160a01b0380821692600160a01b830467ffffffffffffffff1692600160e01b900461ffff16911684565b604080516001600160a01b03958616815267ffffffffffffffff909416602085015261ffff909216918301919091529190911660608201526080016103c6565b3480156108d857600080fd5b506104116123ae565b3480156108ed57600080fd5b506103ba6108fc3660046153d1565b600091825261012d602090815260408084206001600160a01b0393909316845291905290205460ff1690565b34801561093457600080fd5b506103e46123c8565b34801561094957600080fd5b5061044961095836600461573c565b6123d7565b34801561096957600080fd5b5060405163ffffffff7f00000000000000000000000000000000000000000000000000000000000000001681526020016103c6565b3480156109aa57600080fd5b506104a4600081565b3480156109bf57600080fd5b506104496109ce366004615759565b6127ac565b3480156109df57600080fd5b506109f36109ee366004615787565b61285a565b6040516103c691906157c9565b348015610a0c57600080fd5b506104117f000000000000000000000000000000000000000000000000000000000000000081565b348015610a4057600080fd5b50610449610a4f366004615849565b61294f565b348015610a6057600080fd5b506104a4610a6f366004615787565b6129b9565b348015610a8057600080fd5b506103e4610a8f3660046158b5565b612b37565b348015610aa057600080fd5b506103e4610aaf3660046158ea565b612c54565b348015610ac057600080fd5b506103e4610acf366004615246565b612d82565b348015610ae057600080fd5b50610af4610aef3660046152ab565b612e4e565b60408051825181526020808401519082015291810151908201526060016103c6565b348015610b2257600080fd5b506104a47f000000000000000000000000000000000000000000000000000000000000000081565b348015610b5657600080fd5b50610449610b653660046153d1565b612f10565b348015610b7657600080fd5b506104a47f000000000000000000000000000000000000000000000000000000000000000081565b348015610baa57600080fd5b506104a4610bb936600461527f565b612f36565b348015610bca57600080fd5b506103e461306d565b348015610bdf57600080fd5b506103ba610bee36600461595c565b6130f9565b348015610bff57600080fd5b50610645610c0e366004615246565b61316d565b6104a4610c21366004615246565b613240565b348015610c3257600080fd5b50610449610c4136600461598a565b6134a0565b6000610c51826136c6565b80610c8557507f8da5cb5b000000000000000000000000000000000000000000000000000000006001600160e01b03198316145b80610cb957507f2a55205a000000000000000000000000000000000000000000000000000000006001600160e01b03198316145b80610ced57507f49064906000000000000000000000000000000000000000000000000000000006001600160e01b03198316145b80610d2157507f1a95c452000000000000000000000000000000000000000000000000000000006001600160e01b03198316145b92915050565b606060678054610d3690615a28565b80601f0160208091040260200160405190810160405280929190818152602001828054610d6290615a28565b8015610daf5780601f10610d8457610100808354040283529160200191610daf565b820191906000526020600020905b815481529060010190602001808311610d9257829003601f168201915b5050505050905090565b6000610dc482613704565b610dfa576040517fcf4700e400000000000000000000000000000000000000000000000000000000815260040160405180910390fd5b506000908152606b60205260409020546001600160a01b031690565b6000610e2182612334565b9050806001600160a01b0316836001600160a01b031603610e6e576040517f943f7b8c00000000000000000000000000000000000000000000000000000000815260040160405180910390fd5b336001600160a01b03821614801590610e8e5750610e8c81336130f9565b155b15610ec5576040517fcfb3b94200000000000000000000000000000000000000000000000000000000815260040160405180910390fd5b610ed083838361373d565b505050565b3360009081527fa581b17bfc4d6578e300cafbf34fd2dc1fef0270d8c73f88a99dcde2859a663960205260409020547f00000000000000000000000000000000000000000000000000000000000000009060ff16158015610f515750600081815261012d6020908152604080832033845290915290205460ff16155b15610f90576040517fcee8157c000000000000000000000000000000000000000000000000000000008152600481018290526024015b60405180910390fd5b61016180547fffffffffffffffffffffffff0000000000000000000000000000000000000000166001600160a01b0384169081179091556040513391907f70a7ea5c664ab9c21baf3da59bb2f1e1ca33557b08a0031fab4f17076744995190600090a35050565b3360009081527fa581b17bfc4d6578e300cafbf34fd2dc1fef0270d8c73f88a99dcde2859a6639602052604090205460ff1661105f576040517f02bd6bd100000000000000000000000000000000000000000000000000000000815260040160405180910390fd5b611068816137b1565b50565b610ed0838383613827565b6001600160a01b03811660009081527fa581b17bfc4d6578e300cafbf34fd2dc1fef0270d8c73f88a99dcde2859a6639602052604081205460ff16610d21565b6000600260fb540361110a5760405162461bcd60e51b815260206004820152601f60248201527f5265656e7472616e637947756172643a207265656e7472616e742063616c6c006044820152606401610f87565b600260fb55610160548690600160a01b900467ffffffffffffffff166111336065546000190190565b61113d9083615aaa565b1115611175576040517f717c513000000000000000000000000000000000000000000000000000000000815260040160405180910390fd5b61117d613a86565b6111b3576040517f95ed3c1a00000000000000000000000000000000000000000000000000000000815260040160405180910390fd5b61122e84848080602002602001604051908101604052809392919081815260200183836020028082843760009201919091525050610164549150339050604080516001600160a01b03909216602083015281018a90526060810189905260800160405160208183030381529060405280519060200120613ad7565b611264576040517f85b70e5200000000000000000000000000000000000000000000000000000000815260040160405180910390fd5b61126e8786615abd565b34146112b35761127e8786615abd565b6040517f6a1c179e000000000000000000000000000000000000000000000000000000008152600401610f8791815260200190565b3360009081526101656020526040812080548992906112d3908490615aaa565b90915550503360009081526101656020526040902054861015611322576040517fa7b32bb100000000000000000000000000000000000000000000000000000000815260040160405180910390fd5b61132c3388613aed565b600087611337613b63565b6113419190615ad4565b90508588336001600160a01b03167f4e26b0356a15833a75d497ecc40ebbb716b99466ed0dba9454f1fff451e25a908460405161138091815260200190565b60405180910390a4600160fb55979650505050505050565b6101615460009081906001600160a01b03166113c4575050610161546001600160a01b03166000611400565b61016154610160546001600160a01b0390911690612710906113f190600160e01b900461ffff1686615abd565b6113fb9190615ae7565b915091505b9250929050565b600082815261012d602052604090206001015461142381613b74565b610ed08383613b7e565b6040805161016081018252600080825260208201819052918101829052606081018290526080810182905260a0810182905260c0810182905260e081018290526101008101829052610120810182905261014081019190915260405180610160016040528061149a613c22565b151581526020016114a9613a86565b15158152610162546cffffffffffffffffffffffffff8116602083015267ffffffffffffffff710100000000000000000000000000000000008204811660408401526101635480821660608501526801000000000000000081048216608085015270010000000000000000000000000000000090041660a08301526101645460c083015263ffffffff6d01000000000000000000000000009091041660e08201526101000161155b6065546000190190565b815261016054600160a01b900467ffffffffffffffff16602090910152919050565b6001600160a01b03811633146115fb5760405162461bcd60e51b815260206004820152602f60248201527f416363657373436f6e74726f6c3a2063616e206f6e6c792072656e6f756e636560448201527f20726f6c657320666f722073656c6600000000000000000000000000000000006064820152608401610f87565b6116058282613c69565b5050565b6001600160a01b037f00000000000000000000000000000000000000000000000000000000000000001630036116a75760405162461bcd60e51b815260206004820152602c60248201527f46756e6374696f6e206d7573742062652063616c6c6564207468726f7567682060448201527f64656c656761746563616c6c00000000000000000000000000000000000000006064820152608401610f87565b7f00000000000000000000000000000000000000000000000000000000000000006001600160a01b03166117027f360894a13ba1a3210667c828492db98dca3e2076cc3735a920a3ca505d382bbc546001600160a01b031690565b6001600160a01b03161461177e5760405162461bcd60e51b815260206004820152602c60248201527f46756e6374696f6e206d7573742062652063616c6c6564207468726f7567682060448201527f6163746976652070726f787900000000000000000000000000000000000000006064820152608401610f87565b61178781613cee565b6040805160008082526020820190925261106891839190613e69565b3360009081527fa581b17bfc4d6578e300cafbf34fd2dc1fef0270d8c73f88a99dcde2859a6639602052604090205460ff1661180b576040517f02bd6bd100000000000000000000000000000000000000000000000000000000815260040160405180910390fd5b61016080547fffffffffffffffffffffffff0000000000000000000000000000000000000000166001600160a01b0384161790558051156118be576040517f856a7ffa0000000000000000000000000000000000000000000000000000000081526001600160a01b0383169063856a7ffa9061188b908490600401615233565b600060405180830381600087803b1580156118a557600080fd5b505af11580156118b9573d6000803e3d6000fd5b505050505b7f046c5d913c35948c3e0e44c3599eb14bf33b73f141fa8bb282b300414998b86833604080516001600160a01b03928316815291851660208301520160405180910390a1611605614009565b600260fb540361195c5760405162461bcd60e51b815260206004820152601f60248201527f5265656e7472616e637947756172643a207265656e7472616e742063616c6c006044820152606401610f87565b600260fb55334760008061196f8361316d565b6001600160a01b03861660009081527fa581b17bfc4d6578e300cafbf34fd2dc1fef0270d8c73f88a99dcde2859a66396020526040902054919350915060ff16158015611a0157507f0000000000000000000000000000000000000000000000000000000000000000600090815261012d602090815260408083206001600160a01b038816845290915290205460ff16155b8015611a1f5750816001600160a01b0316846001600160a01b031614155b8015611a3a5750610161546001600160a01b03858116911614155b15611a71576040517f1dab829b00000000000000000000000000000000000000000000000000000000815260040160405180910390fd5b8015611b35576000826001600160a01b0316827f000000000000000000000000000000000000000000000000000000000000000090604051600060405180830381858888f193505050503d8060008114611ae7576040519150601f19603f3d011682016040523d82523d6000602084013e611aec565b606091505b5050905080611b27576040517f39debd5b00000000000000000000000000000000000000000000000000000000815260040160405180910390fd5b611b318285615ad4565b9350505b610161546040516000916001600160a01b0316907f000000000000000000000000000000000000000000000000000000000000000090869084818181858888f193505050503d8060008114611ba6576040519150601f19603f3d011682016040523d82523d6000602084013e611bab565b606091505b5050905080611be6576040517f39debd5b00000000000000000000000000000000000000000000000000000000815260040160405180910390fd5b610161546001600160a01b031633604080518781526001600160a01b0387811660208301529181018690529116907f8a95554e4c9dcaaf33f247387f2ee77390780487d3365e3a804788791a1df5009060600160405180910390a35050600160fb55505050565b3360009081527fa581b17bfc4d6578e300cafbf34fd2dc1fef0270d8c73f88a99dcde2859a663960205260409020547f00000000000000000000000000000000000000000000000000000000000000009060ff16158015611cc95750600081815261012d6020908152604080832033845290915290205460ff16155b15611d03576040517fcee8157c00000000000000000000000000000000000000000000000000000000815260048101829052602401610f87565b61016054600160a01b900467ffffffffffffffff90811614611d51576040517fe742c08400000000000000000000000000000000000000000000000000000000815260040160405180910390fd5b60655460001901610160805467ffffffffffffffff92909216600160a01b027fffffffff0000000000000000ffffffffffffffffffffffffffffffffffffffff909216919091179055611da13390565b61016054604051600160a01b90910467ffffffffffffffff1681526001600160a01b0391909116907fb6cc1e876b8d7479c8afe025a58658b0f3c3ec5bd0f28cb4261326b162069bf89060200160405180910390a250565b600054610100900460ff16611e145760005460ff1615611e18565b303b155b611e8a5760405162461bcd60e51b815260206004820152602e60248201527f496e697469616c697a61626c653a20636f6e747261637420697320616c72656160448201527f647920696e697469616c697a65640000000000000000000000000000000000006064820152608401610f87565b600054610100900460ff16158015611ec957600080547fffffffffffffffffffffffffffffffffffffffffffffffffffffffffffff0000166101011790555b611ed38b8b614068565b611edb6140ef565b611ee361416e565b611eee60008a6141f3565b611ef7896137b1565b8315611f1e57611f086000336141f3565b611f12858561285a565b50611f1e600033613c69565b61016054611388600160e01b90910461ffff161115611f6d576040517f6680e9820000000000000000000000000000000000000000000000000000000081526113886004820152602401610f87565b61016080546001600160a01b038581167fffff000000000000000000000000000000000000000000000000000000000000909216600160a01b67ffffffffffffffff8c16027fffff0000ffffffffffffffff000000000000000000000000000000000000000016178217600160e01b61ffff8b16021790925561016180547fffffffffffffffffffffffff000000000000000000000000000000000000000016928b16929092179091556040517f856a7ffa00000000000000000000000000000000000000000000000000000000815263856a7ffa90612051908590600401615233565b600060405180830381600087803b15801561206b57600080fd5b505af115801561207f573d6000803e3d6000fd5b5050505080156120b257600080547fffffffffffffffffffffffffffffffffffffffffffffffffffffffffffff00ff1690555b5050505050505050505050565b610ed08383836040518060200160405280600081525061294f565b6110688160016141fd565b6001600160a01b037f00000000000000000000000000000000000000000000000000000000000000001630036121835760405162461bcd60e51b815260206004820152602c60248201527f46756e6374696f6e206d7573742062652063616c6c6564207468726f7567682060448201527f64656c656761746563616c6c00000000000000000000000000000000000000006064820152608401610f87565b7f00000000000000000000000000000000000000000000000000000000000000006001600160a01b03166121de7f360894a13ba1a3210667c828492db98dca3e2076cc3735a920a3ca505d382bbc546001600160a01b031690565b6001600160a01b03161461225a5760405162461bcd60e51b815260206004820152602c60248201527f46756e6374696f6e206d7573742062652063616c6c6564207468726f7567682060448201527f6163746976652070726f787900000000000000000000000000000000000000006064820152608401610f87565b61226382613cee565b61160582826001613e69565b6000306001600160a01b037f0000000000000000000000000000000000000000000000000000000000000000161461230f5760405162461bcd60e51b815260206004820152603860248201527f555550535570677261646561626c653a206d757374206e6f742062652063616c60448201527f6c6564207468726f7567682064656c656761746563616c6c00000000000000006064820152608401610f87565b507f360894a13ba1a3210667c828492db98dca3e2076cc3735a920a3ca505d382bbc90565b600061233f82614432565b5192915050565b60006001600160a01b038216612388576040517f8f4eb60400000000000000000000000000000000000000000000000000000000815260040160405180910390fd5b506001600160a01b03166000908152606a602052604090205467ffffffffffffffff1690565b60006123c361015f546001600160a01b031690565b905090565b606060688054610d3690615a28565b3360009081527fa581b17bfc4d6578e300cafbf34fd2dc1fef0270d8c73f88a99dcde2859a6639602052604090205460ff1661243f576040517f02bd6bd100000000000000000000000000000000000000000000000000000000815260040160405180910390fd5b307f00000000000000000000000000000000000000000000000000000000000000006001600160a01b03166124a0576040517fb598950e00000000000000000000000000000000000000000000000000000000815260040160405180910390fd5b6040517fc3c5a5470000000000000000000000000000000000000000000000000000000081526001600160a01b0382811660048301527f0000000000000000000000000000000000000000000000000000000000000000169063c3c5a547906024016020604051808303816000875af1158015612521573d6000803e3d6000fd5b505050506040513d601f19601f820116820180604052508101906125459190615b22565b15801561254f5750815b15612615576040517f7d3e3dbe0000000000000000000000000000000000000000000000000000000081526001600160a01b0382811660048301527f0000000000000000000000000000000000000000000000000000000000000000811660248301527f00000000000000000000000000000000000000000000000000000000000000001690637d3e3dbe906044015b600060405180830381600087803b1580156125f957600080fd5b505af115801561260d573d6000803e3d6000fd5b505050505050565b81156126aa576040517fb314d4140000000000000000000000000000000000000000000000000000000081526001600160a01b0382811660048301527f0000000000000000000000000000000000000000000000000000000000000000811660248301527f0000000000000000000000000000000000000000000000000000000000000000169063b314d414906044016125df565b6040517f34a0dc100000000000000000000000000000000000000000000000000000000081526001600160a01b038281166004830152600060248301527f000000000000000000000000000000000000000000000000000000000000000016906334a0dc1090604401600060405180830381600087803b15801561272d57600080fd5b505af1158015612741573d6000803e3d6000fd5b50506040517f2ec2c2460000000000000000000000000000000000000000000000000000000081526001600160a01b0384811660048301527f0000000000000000000000000000000000000000000000000000000000000000169250632ec2c24691506024016125df565b336001600160a01b038316036127ee576040517fb06307db00000000000000000000000000000000000000000000000000000000815260040160405180910390fd5b336000818152606c602090815260408083206001600160a01b03871680855290835292819020805460ff191686151590811790915590519081529192917f17307eab39ab6107e8899845ad3d59bd9653f200f220920489ca2b5937696c31910160405180910390a35050565b60608167ffffffffffffffff811115612875576128756154cc565b6040519080825280602002602001820160405280156128a857816020015b60608152602001906001900390816128935790505b50905060005b8281101561294857612918308585848181106128cc576128cc615b3f565b90506020028101906128de9190615b6e565b8080601f01602080910402602001604051908101604052809392919081815260200183838082843760009201919091525061457492505050565b82828151811061292a5761292a615b3f565b6020026020010181905250808061294090615bd3565b9150506128ae565b5092915050565b61295a848484613827565b6001600160a01b0383163b1515801561297c575061297a84848484614599565b155b156129b3576040517fd1a57ed600000000000000000000000000000000000000000000000000000000815260040160405180910390fd5b50505050565b3360009081527fa581b17bfc4d6578e300cafbf34fd2dc1fef0270d8c73f88a99dcde2859a663960205260408120547f00000000000000000000000000000000000000000000000000000000000000009060ff16158015612a355750600081815261012d6020908152604080832033845290915290205460ff16155b15612a6f576040517fcee8157c00000000000000000000000000000000000000000000000000000000815260048101829052602401610f87565b610160548390600160a01b900467ffffffffffffffff16612a936065546000190190565b612a9d9083615aaa565b1115612ad5576040517f717c513000000000000000000000000000000000000000000000000000000000815260040160405180910390fd5b606554808581015b80831015612b2357612b188888848603818110612afc57612afc615b3f565b9050602002016020810190612b1191906152ab565b6001613aed565b600190920191612add565b50612b2c613b63565b979650505050505050565b3360009081527fa581b17bfc4d6578e300cafbf34fd2dc1fef0270d8c73f88a99dcde2859a6639602052604090205460609060ff16612ba2576040517f02bd6bd100000000000000000000000000000000000000000000000000000000815260040160405180910390fd5b6101605460405160009182916001600160a01b0390911690612bc5908690615bed565b6000604051808303816000865af19150503d8060008114612c02576040519150601f19603f3d011682016040523d82523d6000602084013e612c07565b606091505b509150915081612c43576040517f97e71ac300000000000000000000000000000000000000000000000000000000815260040160405180910390fd5b612c4b614009565b9150505b919050565b3360009081527fa581b17bfc4d6578e300cafbf34fd2dc1fef0270d8c73f88a99dcde2859a6639602052604090205460609060ff16612cbf576040517f02bd6bd100000000000000000000000000000000000000000000000000000000815260040160405180910390fd5b6000807f00000000000000000000000000000000000000000000000000000000000000006001600160a01b03168585604051612cfc929190615c09565b6000604051808303816000865af19150503d8060008114612d39576040519150601f19603f3d011682016040523d82523d6000602084013e612d3e565b606091505b509150915081612d7a576040517f25f3885400000000000000000000000000000000000000000000000000000000815260040160405180910390fd5b949350505050565b6060612d8d82613704565b612dc3576040517fa14c4b5000000000000000000000000000000000000000000000000000000000815260040160405180910390fd5b610160546040517fc87b56dd000000000000000000000000000000000000000000000000000000008152600481018490526001600160a01b039091169063c87b56dd90602401600060405180830381865afa158015612e26573d6000803e3d6000fd5b505050506040513d6000823e601f3d908101601f19168201604052610d219190810190615c19565b612e7260405180606001604052806000815260200160008152602001600081525090565b6040518060600160405280612eb3846001600160a01b03166000908152606a602052604090205467ffffffffffffffff680100000000000000009091041690565b81526001600160a01b03841660008181526101656020908152604080832054828601819052938352606a909152908190205492019168010000000000000000900467ffffffffffffffff16612f089190615ad4565b905292915050565b600082815261012d6020526040902060010154612f2c81613b74565b610ed08383613c69565b3360009081527fa581b17bfc4d6578e300cafbf34fd2dc1fef0270d8c73f88a99dcde2859a663960205260408120547f00000000000000000000000000000000000000000000000000000000000000009060ff16158015612fb25750600081815261012d6020908152604080832033845290915290205460ff16155b15612fec576040517fcee8157c00000000000000000000000000000000000000000000000000000000815260048101829052602401610f87565b610160548390600160a01b900467ffffffffffffffff166130106065546000190190565b61301a9083615aaa565b1115613052576040517f717c513000000000000000000000000000000000000000000000000000000000815260040160405180910390fd5b61305c8585613aed565b613064613b63565b95945050505050565b61016054604080517fe8a3d48500000000000000000000000000000000000000000000000000000000815290516060926001600160a01b03169163e8a3d4859160048083019260009291908290030181865afa1580156130d1573d6000803e3d6000fd5b505050506040513d6000823e601f3d908101601f191682016040526123c39190810190615c19565b60007f00000000000000000000000000000000000000000000000000000000000000006001600160a01b0316826001600160a01b03160361313c57506001610d21565b6001600160a01b038084166000908152606c602090815260408083209386168352929052205460ff165b9392505050565b6040517f2e0c16490000000000000000000000000000000000000000000000000000000081523060048201526000908190819081906001600160a01b037f00000000000000000000000000000000000000000000000000000000000000001690632e0c16499060240160408051808303816000875af11580156131f4573d6000803e3d6000fd5b505050506040513d601f19601f820116820180604052508101906132189190615c87565b90925090508161271061322b8388615abd565b6132359190615ae7565b935093505050915091565b6000600260fb54036132945760405162461bcd60e51b815260206004820152601f60248201527f5265656e7472616e637947756172643a207265656e7472616e742063616c6c006044820152606401610f87565b600260fb55610160548290600160a01b900467ffffffffffffffff166132bd6065546000190190565b6132c79083615aaa565b11156132ff576040517f717c513000000000000000000000000000000000000000000000000000000000815260040160405180910390fd5b613307613c22565b61333d576040517ff12dcc7f00000000000000000000000000000000000000000000000000000000815260040160405180910390fd5b610162546cffffffffffffffffffffffffff1661335a8482615abd565b341461336a5761127e8482615abd565b610162546d0100000000000000000000000000900463ffffffff16158015906133f65750610162543360009081526101656020908152604080832054606a909252909120546d010000000000000000000000000090920463ffffffff1691869068010000000000000000900467ffffffffffffffff166133ea9190615aaa565b6133f49190615ad4565b115b1561342d576040517f220ae94c00000000000000000000000000000000000000000000000000000000815260040160405180910390fd5b6134373385613aed565b600084613442613b63565b61344c9190615ad4565b90508185336001600160a01b03167f4e26b0356a15833a75d497ecc40ebbb716b99466ed0dba9454f1fff451e25a908460405161348b91815260200190565b60405180910390a4600160fb55949350505050565b3360009081527fa581b17bfc4d6578e300cafbf34fd2dc1fef0270d8c73f88a99dcde2859a663960205260409020547f00000000000000000000000000000000000000000000000000000000000000009060ff1615801561351c5750600081815261012d6020908152604080832033845290915290205460ff16155b15613556576040517fcee8157c00000000000000000000000000000000000000000000000000000000815260048101829052602401610f87565b61016280546cffffffffffffffffffffffffff8a167fffffffffffffffffffffffffffffff0000000000000000000000000000000000909116176d010000000000000000000000000063ffffffff8a1602177fffffffffffffff0000000000000000ffffffffffffffffffffffffffffffffff167101000000000000000000000000000000000067ffffffffffffffff898116919091029190911790915561016380548783167fffffffffffffffffffffffffffffffff00000000000000000000000000000000909116176801000000000000000087841602177fffffffffffffffff0000000000000000ffffffffffffffffffffffffffffffff1670010000000000000000000000000000000092861692909202919091179055610164829055336001600160a01b03167fc1ff5e4744ac8dd2b8027a10e3723b165975297501c71c4e7dcb8796d96375db60405160405180910390a25050505050505050565b6001600160a01b03163b151590565b60006001600160e01b031982167f7965db0b000000000000000000000000000000000000000000000000000000001480610d215750610d21826146cf565b600081600111158015613718575060655482105b8015610d21575050600090815260696020526040902054600160e01b900460ff161590565b6000828152606b602052604080822080547fffffffffffffffffffffffff0000000000000000000000000000000000000000166001600160a01b0387811691821790925591518593918516917f8c5be1e5ebec7d5bd14f71427d1e84f3dd0314c0f7b2291e5b200ac8c7c3b92591a4505050565b61015f546040516001600160a01b038084169216907f8be0079c531659141344cd1fd0a4f28419497f9722a3daafe3b4186f6b6457e090600090a361015f80547fffffffffffffffffffffffff0000000000000000000000000000000000000000166001600160a01b0392909216919091179055565b600061383282614432565b9050836001600160a01b031681600001516001600160a01b031614613883576040517fa114810000000000000000000000000000000000000000000000000000000000815260040160405180910390fd5b6000336001600160a01b03861614806138a157506138a185336130f9565b806138bc5750336138b184610db9565b6001600160a01b0316145b9050806138f5576040517f59c896be00000000000000000000000000000000000000000000000000000000815260040160405180910390fd5b6001600160a01b038416613935576040517fea553b3400000000000000000000000000000000000000000000000000000000815260040160405180910390fd5b613942858585600161476a565b61394e6000848761373d565b6001600160a01b038581166000908152606a6020908152604080832080547fffffffffffffffffffffffffffffffffffffffffffffffff000000000000000080821667ffffffffffffffff92831660001901831617909255898616808652838620805493841693831660019081018416949094179055898652606990945282852080546001600160e01b031916909417600160a01b42909216919091021783558701808452922080549193909116613a3b576065548214613a3b578054602086015167ffffffffffffffff16600160a01b026001600160e01b03199091166001600160a01b038a16171781555b50505082846001600160a01b0316866001600160a01b03167fddf252ad1be2c89b69c2b068fc378daa952ba7f163c4a11628f55a4df523b3ef60405160405180910390a45050505050565b61016354600090426801000000000000000090910467ffffffffffffffff16118015906123c3575050610163544270010000000000000000000000000000000090910467ffffffffffffffff161190565b600082613ae4858461486f565b14949350505050565b60007f00000000000000000000000000000000000000000000000000000000000000008211613b1c5781613b3e565b7f00000000000000000000000000000000000000000000000000000000000000005b9050613b4a83826148e3565b613b548183615ad4565b91505060008111613aed575050565b600060016065546123c39190615ad4565b6110688133614a7c565b600082815261012d602090815260408083206001600160a01b038516845290915290205460ff1661160557600082815261012d602090815260408083206001600160a01b03851684529091529020805460ff19166001179055613bde3390565b6001600160a01b0316816001600160a01b0316837f2f8788117e7eff1d82e926ec794901d17c78024a50270940304540a733656f0d60405160405180910390a45050565b61016254600090427101000000000000000000000000000000000090910467ffffffffffffffff16118015906123c3575050610163544267ffffffffffffffff9091161190565b600082815261012d602090815260408083206001600160a01b038516845290915290205460ff161561160557600082815261012d602090815260408083206001600160a01b0385168085529252808320805460ff1916905551339285917ff6391f5c32d9c69d2a47ea670b442974b53935d1edc7fd64eb21e047a839171b9190a45050565b3360009081527fa581b17bfc4d6578e300cafbf34fd2dc1fef0270d8c73f88a99dcde2859a6639602052604090205460ff16613d56576040517f02bd6bd100000000000000000000000000000000000000000000000000000000815260040160405180910390fd5b7f00000000000000000000000000000000000000000000000000000000000000006001600160a01b0316637399583382613db77f360894a13ba1a3210667c828492db98dca3e2076cc3735a920a3ca505d382bbc546001600160a01b031690565b6040516001600160e01b031960e085901b1681526001600160a01b039283166004820152911660248201526044016020604051808303816000875af1158015613e04573d6000803e3d6000fd5b505050506040513d601f19601f82011682018060405250810190613e289190615b22565b611068576040517fef2bf7d40000000000000000000000000000000000000000000000000000000081526001600160a01b0382166004820152602401610f87565b7f4910fdfa16fed3260ed0e7147f7cc6da11a60208b5b9406d12a635614ffd91435460ff1615613e9c57610ed083614afd565b826001600160a01b03166352d1902d6040518163ffffffff1660e01b8152600401602060405180830381865afa925050508015613ef6575060408051601f3d908101601f19168201909252613ef391810190615cb5565b60015b613f685760405162461bcd60e51b815260206004820152602e60248201527f45524331393637557067726164653a206e657720696d706c656d656e7461746960448201527f6f6e206973206e6f7420555550530000000000000000000000000000000000006064820152608401610f87565b7f360894a13ba1a3210667c828492db98dca3e2076cc3735a920a3ca505d382bbc8114613ffd5760405162461bcd60e51b815260206004820152602960248201527f45524331393637557067726164653a20756e737570706f727465642070726f7860448201527f6961626c655555494400000000000000000000000000000000000000000000006064820152608401610f87565b50610ed0838383614bd3565b60006140186065546000190190565b90508015611068577f6bd5c950a8d8df17f772f5af37cb3655737899cbf903264b9795592da439661c600161404d8184615aaa565b6040805192835260208301919091520160405180910390a150565b600054610100900460ff166140e55760405162461bcd60e51b815260206004820152602b60248201527f496e697469616c697a61626c653a20636f6e7472616374206973206e6f74206960448201527f6e697469616c697a696e670000000000000000000000000000000000000000006064820152608401610f87565b6116058282614bf8565b600054610100900460ff1661416c5760405162461bcd60e51b815260206004820152602b60248201527f496e697469616c697a61626c653a20636f6e7472616374206973206e6f74206960448201527f6e697469616c697a696e670000000000000000000000000000000000000000006064820152608401610f87565b565b600054610100900460ff166141eb5760405162461bcd60e51b815260206004820152602b60248201527f496e697469616c697a61626c653a20636f6e7472616374206973206e6f74206960448201527f6e697469616c697a696e670000000000000000000000000000000000000000006064820152608401610f87565b61416c614c98565b6116058282613b7e565b600061420883614432565b80519091508215614287576000336001600160a01b0383161480614231575061423182336130f9565b8061424c57503361424186610db9565b6001600160a01b0316145b905080614285576040517f59c896be00000000000000000000000000000000000000000000000000000000815260040160405180910390fd5b505b61429581600086600161476a565b6142a16000858361373d565b6001600160a01b038082166000818152606a60209081526040808320805470010000000000000000000000000000000060001967ffffffffffffffff8084169190910181167fffffffffffffffffffffffffffffffffffffffffffffffff0000000000000000841681178390048216600190810183169093027fffffffffffffffff0000000000000000ffffffffffffffff0000000000000000909416179290921783558b8652606990945282852080547fffffff00ffffffffffffffffffffffffffffffffffffffffffffffffffffffff42909316600160a01b026001600160e01b03199091169097179690961716600160e01b1785559189018084529220805491949091166143e75760655482146143e7578054602087015167ffffffffffffffff16600160a01b026001600160e01b03199091166001600160a01b038716171781555b5050604051869250600091506001600160a01b038416907fddf252ad1be2c89b69c2b068fc378daa952ba7f163c4a11628f55a4df523b3ef908390a450506066805460010190555050565b60408051606081018252600080825260208201819052918101919091528180600111158015614462575060655481105b1561454257600081815260696020908152604091829020825160608101845290546001600160a01b0381168252600160a01b810467ffffffffffffffff1692820192909252600160e01b90910460ff161515918101829052906145405780516001600160a01b0316156144d6579392505050565b5060001901600081815260696020908152604091829020825160608101845290546001600160a01b038116808352600160a01b820467ffffffffffffffff1693830193909352600160e01b900460ff161515928101929092521561453b579392505050565b6144d6565b505b6040517fdf2d9b4200000000000000000000000000000000000000000000000000000000815260040160405180910390fd5b60606131668383604051806060016040528060278152602001615ebc60279139614d1c565b6040517f150b7a020000000000000000000000000000000000000000000000000000000081526000906001600160a01b0385169063150b7a02906145e7903390899088908890600401615cce565b6020604051808303816000875af1925050508015614622575060408051601f3d908101601f1916820190925261461f91810190615d00565b60015b614699573d808015614650576040519150601f19603f3d011682016040523d82523d6000602084013e614655565b606091505b508051600003614691576040517fd1a57ed600000000000000000000000000000000000000000000000000000000815260040160405180910390fd5b805181602001fd5b6001600160e01b0319167f150b7a0200000000000000000000000000000000000000000000000000000000149050949350505050565b60006001600160e01b031982167f80ac58cd00000000000000000000000000000000000000000000000000000000148061473257506001600160e01b031982167f5b5e139f00000000000000000000000000000000000000000000000000000000145b80610d2157507f01ffc9a7000000000000000000000000000000000000000000000000000000006001600160e01b0319831614610d21565b6001600160a01b0384161580159061478b57506001600160a01b0384163314155b156129b3576040517fc61711340000000000000000000000000000000000000000000000000000000081523060048201523360248201527f00000000000000000000000000000000000000000000000000000000000000006001600160a01b03169063c617113490604401602060405180830381865afa158015614813573d6000803e3d6000fd5b505050506040513d601f19601f820116820180604052508101906148379190615b22565b6129b3576040517fede71dcc000000000000000000000000000000000000000000000000000000008152336004820152602401610f87565b600081815b84518110156148db57600085828151811061489157614891615b3f565b602002602001015190508083116148b757600083815260208290526040902092506148c8565b600081815260208490526040902092505b50806148d381615bd3565b915050614874565b509392505050565b6065546001600160a01b038316614926576040517f2e07630000000000000000000000000000000000000000000000000000000000815260040160405180910390fd5b81600003614960576040517fb562e8dd00000000000000000000000000000000000000000000000000000000815260040160405180910390fd5b61496d600084838561476a565b6001600160a01b0383166000818152606a6020908152604080832080547fffffffffffffffffffffffffffffffff00000000000000000000000000000000811667ffffffffffffffff8083168a018116918217680100000000000000007fffffffffffffffffffffffffffffffffffffffffffffffff000000000000000090941690921783900481168a01811690920217909155858452606990925290912080546001600160e01b031916909217600160a01b4290921691909102179055808083015b6040516001830192906001600160a01b038716906000907fddf252ad1be2c89b69c2b068fc378daa952ba7f163c4a11628f55a4df523b3ef908290a4808203614a305750606555505050565b600082815261012d602090815260408083206001600160a01b038516845290915290205460ff1661160557614abb816001600160a01b03166014614e10565b614ac6836020614e10565b604051602001614ad7929190615d1d565b60408051601f198184030181529082905262461bcd60e51b8252610f8791600401615233565b6001600160a01b0381163b614b7a5760405162461bcd60e51b815260206004820152602d60248201527f455243313936373a206e657720696d706c656d656e746174696f6e206973206e60448201527f6f74206120636f6e7472616374000000000000000000000000000000000000006064820152608401610f87565b7f360894a13ba1a3210667c828492db98dca3e2076cc3735a920a3ca505d382bbc80547fffffffffffffffffffffffff0000000000000000000000000000000000000000166001600160a01b0392909216919091179055565b614bdc83615039565b600082511180614be95750805b15610ed0576129b38383615079565b600054610100900460ff16614c755760405162461bcd60e51b815260206004820152602b60248201527f496e697469616c697a61626c653a20636f6e7472616374206973206e6f74206960448201527f6e697469616c697a696e670000000000000000000000000000000000000000006064820152608401610f87565b6067614c818382615de4565b506068614c8e8282615de4565b5060016065555050565b600054610100900460ff16614d155760405162461bcd60e51b815260206004820152602b60248201527f496e697469616c697a61626c653a20636f6e7472616374206973206e6f74206960448201527f6e697469616c697a696e670000000000000000000000000000000000000000006064820152608401610f87565b600160fb55565b60606001600160a01b0384163b614d9b5760405162461bcd60e51b815260206004820152602660248201527f416464726573733a2064656c65676174652063616c6c20746f206e6f6e2d636f60448201527f6e747261637400000000000000000000000000000000000000000000000000006064820152608401610f87565b600080856001600160a01b031685604051614db69190615bed565b600060405180830381855af49150503d8060008114614df1576040519150601f19603f3d011682016040523d82523d6000602084013e614df6565b606091505b5091509150614e06828286615177565b9695505050505050565b60606000614e1f836002615abd565b614e2a906002615aaa565b67ffffffffffffffff811115614e4257614e426154cc565b6040519080825280601f01601f191660200182016040528015614e6c576020820181803683370190505b5090507f300000000000000000000000000000000000000000000000000000000000000081600081518110614ea357614ea3615b3f565b60200101907effffffffffffffffffffffffffffffffffffffffffffffffffffffffffffff1916908160001a9053507f780000000000000000000000000000000000000000000000000000000000000081600181518110614f0657614f06615b3f565b60200101907effffffffffffffffffffffffffffffffffffffffffffffffffffffffffffff1916908160001a9053506000614f42846002615abd565b614f4d906001615aaa565b90505b6001811115614fea577f303132333435363738396162636465660000000000000000000000000000000085600f1660108110614f8e57614f8e615b3f565b1a60f81b828281518110614fa457614fa4615b3f565b60200101907effffffffffffffffffffffffffffffffffffffffffffffffffffffffffffff1916908160001a90535060049490941c93614fe381615ea4565b9050614f50565b5083156131665760405162461bcd60e51b815260206004820181905260248201527f537472696e67733a20686578206c656e67746820696e73756666696369656e746044820152606401610f87565b61504281614afd565b6040516001600160a01b038216907fbc7cd75a20ee27fd9adebab32041f755214dbc6bffa90cc0225b39da2e5c2d3b90600090a250565b60606001600160a01b0383163b6150f85760405162461bcd60e51b815260206004820152602660248201527f416464726573733a2064656c65676174652063616c6c20746f206e6f6e2d636f60448201527f6e747261637400000000000000000000000000000000000000000000000000006064820152608401610f87565b600080846001600160a01b0316846040516151139190615bed565b600060405180830381855af49150503d806000811461514e576040519150601f19603f3d011682016040523d82523d6000602084013e615153565b606091505b50915091506130648282604051806060016040528060278152602001615ebc602791395b60608315615186575081613166565b8251156151965782518084602001fd5b8160405162461bcd60e51b8152600401610f879190615233565b6001600160e01b03198116811461106857600080fd5b6000602082840312156151d857600080fd5b8135613166816151b0565b60005b838110156151fe5781810151838201526020016151e6565b50506000910152565b6000815180845261521f8160208601602086016151e3565b601f01601f19169290920160200192915050565b6020815260006131666020830184615207565b60006020828403121561525857600080fd5b5035919050565b6001600160a01b038116811461106857600080fd5b8035612c4f8161525f565b6000806040838503121561529257600080fd5b823561529d8161525f565b946020939093013593505050565b6000602082840312156152bd57600080fd5b81356131668161525f565b6000806000606084860312156152dd57600080fd5b83356152e88161525f565b925060208401356152f88161525f565b929592945050506040919091013590565b60008083601f84011261531b57600080fd5b50813567ffffffffffffffff81111561533357600080fd5b6020830191508360208260051b850101111561140057600080fd5b60008060008060006080868803121561536657600080fd5b853594506020860135935060408601359250606086013567ffffffffffffffff81111561539257600080fd5b61539e88828901615309565b969995985093965092949392505050565b600080604083850312156153c257600080fd5b50508035926020909101359150565b600080604083850312156153e457600080fd5b8235915060208301356153f68161525f565b809150509250929050565b8151151581526101608101602083015161541f602084018215159052565b50604083015160408301526060830151615445606084018267ffffffffffffffff169052565b506080830151615461608084018267ffffffffffffffff169052565b5060a083015161547d60a084018267ffffffffffffffff169052565b5060c083015161549960c084018267ffffffffffffffff169052565b5060e083810151908301526101008084015190830152610120808401519083015261014092830151929091019190915290565b7f4e487b7100000000000000000000000000000000000000000000000000000000600052604160045260246000fd5b604051601f8201601f1916810167ffffffffffffffff81118282101715615524576155246154cc565b604052919050565b600067ffffffffffffffff821115615546576155466154cc565b50601f01601f191660200190565b600082601f83011261556557600080fd5b81356155786155738261552c565b6154fb565b81815284602083860101111561558d57600080fd5b816020850160208301376000918101602001919091529392505050565b600080604083850312156155bd57600080fd5b82356155c88161525f565b9150602083013567ffffffffffffffff8111156155e457600080fd5b6155f085828601615554565b9150509250929050565b803567ffffffffffffffff81168114612c4f57600080fd5b803561ffff81168114612c4f57600080fd5b6000806000806000806000806000806101208b8d03121561564457600080fd5b8a3567ffffffffffffffff8082111561565c57600080fd5b6156688e838f01615554565b9b5060208d013591508082111561567e57600080fd5b61568a8e838f01615554565b9a5061569860408e01615274565b99506156a660608e01615274565b98506156b460808e016155fa565b97506156c260a08e01615612565b965060c08d01359150808211156156d857600080fd5b6156e48e838f01615309565b90965094508491506156f860e08e01615274565b93506101008d013591508082111561570f57600080fd5b5061571c8d828e01615554565b9150509295989b9194979a5092959850565b801515811461106857600080fd5b60006020828403121561574e57600080fd5b81356131668161572e565b6000806040838503121561576c57600080fd5b82356157778161525f565b915060208301356153f68161572e565b6000806020838503121561579a57600080fd5b823567ffffffffffffffff8111156157b157600080fd5b6157bd85828601615309565b90969095509350505050565b6000602080830181845280855180835260408601915060408160051b870101925083870160005b8281101561583c577fffffffffffffffffffffffffffffffffffffffffffffffffffffffffffffffc088860301845261582a858351615207565b945092850192908501906001016157f0565b5092979650505050505050565b6000806000806080858703121561585f57600080fd5b843561586a8161525f565b9350602085013561587a8161525f565b925060408501359150606085013567ffffffffffffffff81111561589d57600080fd5b6158a987828801615554565b91505092959194509250565b6000602082840312156158c757600080fd5b813567ffffffffffffffff8111156158de57600080fd5b612d7a84828501615554565b600080602083850312156158fd57600080fd5b823567ffffffffffffffff8082111561591557600080fd5b818501915085601f83011261592957600080fd5b81358181111561593857600080fd5b86602082850101111561594a57600080fd5b60209290920196919550909350505050565b6000806040838503121561596f57600080fd5b823561597a8161525f565b915060208301356153f68161525f565b600080600080600080600060e0888a0312156159a557600080fd5b87356cffffffffffffffffffffffffff811681146159c257600080fd5b9650602088013563ffffffff811681146159db57600080fd5b95506159e9604089016155fa565b94506159f7606089016155fa565b9350615a05608089016155fa565b9250615a1360a089016155fa565b915060c0880135905092959891949750929550565b600181811c90821680615a3c57607f821691505b602082108103615a75577f4e487b7100000000000000000000000000000000000000000000000000000000600052602260045260246000fd5b50919050565b7f4e487b7100000000000000000000000000000000000000000000000000000000600052601160045260246000fd5b80820180821115610d2157610d21615a7b565b8082028115828204841417610d2157610d21615a7b565b81810381811115610d2157610d21615a7b565b600082615b1d577f4e487b7100000000000000000000000000000000000000000000000000000000600052601260045260246000fd5b500490565b600060208284031215615b3457600080fd5b81516131668161572e565b7f4e487b7100000000000000000000000000000000000000000000000000000000600052603260045260246000fd5b60008083357fffffffffffffffffffffffffffffffffffffffffffffffffffffffffffffffe1843603018112615ba357600080fd5b83018035915067ffffffffffffffff821115615bbe57600080fd5b60200191503681900382131561140057600080fd5b60006000198203615be657615be6615a7b565b5060010190565b60008251615bff8184602087016151e3565b9190910192915050565b8183823760009101908152919050565b600060208284031215615c2b57600080fd5b815167ffffffffffffffff811115615c4257600080fd5b8201601f81018413615c5357600080fd5b8051615c616155738261552c565b818152856020838501011115615c7657600080fd5b6130648260208301602086016151e3565b60008060408385031215615c9a57600080fd5b8251615ca58161525f565b6020939093015192949293505050565b600060208284031215615cc757600080fd5b5051919050565b60006001600160a01b03808716835280861660208401525083604083015260806060830152614e066080830184615207565b600060208284031215615d1257600080fd5b8151613166816151b0565b7f416363657373436f6e74726f6c3a206163636f756e7420000000000000000000815260008351615d558160178501602088016151e3565b7f206973206d697373696e6720726f6c65200000000000000000000000000000006017918401918201528351615d928160288401602088016151e3565b01602801949350505050565b601f821115610ed057600081815260208120601f850160051c81016020861015615dc55750805b601f850160051c820191505b8181101561260d57828155600101615dd1565b815167ffffffffffffffff811115615dfe57615dfe6154cc565b615e1281615e0c8454615a28565b84615d9e565b602080601f831160018114615e475760008415615e2f5750858301515b600019600386901b1c1916600185901b17855561260d565b600085815260208120601f198616915b82811015615e7657888601518255948401946001909101908401615e57565b5085821015615e945787850151600019600388901b60f8161c191681555b5050505050600190811b01905550565b600081615eb357615eb3615a7b565b50600019019056fe416464726573733a206c6f772d6c6576656c2064656c65676174652063616c6c206661696c6564a26469706673582212208b5047830af523a7260aed85f091487fd426046e0e994c33c76c9e149de9156a64736f6c63430008110033",
    "linkReferences": {}
  },
  "methodIdentifiers": {
    "DEFAULT_ADMIN_ROLE()": "a217fddf",
    "MINTER_ROLE()": "d5391393",
    "SALES_MANAGER_ROLE()": "e26bd343",
    "adminMint(address,uint256)": "e58306f9",
    "adminMintAirdrop(address[])": "b8ae5a2c",
    "approve(address,uint256)": "095ea7b3",
    "balanceOf(address)": "70a08231",
    "burn(uint256)": "42966c68",
    "callMetadataRenderer(bytes)": "b9e7a584",
    "config()": "79502c55",
    "contractURI()": "e8a3d485",
    "contractVersion()": "a0a8e460",
    "finalizeOpenEdition()": "41e96eb1",
    "getApproved(uint256)": "081812fc",
    "getRoleAdmin(bytes32)": "248a9ca3",
    "grantRole(bytes32,address)": "2f2ff15d",
    "hasRole(bytes32,address)": "91d14854",
    "initialize(string,string,address,address,uint64,uint16,bytes[],address,bytes)": "41f31f38",
    "isAdmin(address)": "24d7806c",
    "isApprovedForAll(address,address)": "e985e9c5",
    "manageMarketFilterDAOSubscription(bool)": "9bdb89e5",
    "metadataRenderer()": "70319970",
    "mintedPerAddress(address)": "d445b978",
    "multicall(bytes[])": "ac9650d8",
    "name()": "06fdde03",
    "owner()": "8da5cb5b",
    "ownerOf(uint256)": "6352211e",
    "presaleMintsByAddress(address)": "61fea768",
    "proxiableUUID()": "52d1902d",
    "purchase(uint256)": "efef39a1",
    "purchasePresale(uint256,uint256,uint256,bytes32[])": "25024a2b",
    "renounceRole(bytes32,address)": "36568abe",
    "revokeRole(bytes32,address)": "d547741f",
    "royaltyInfo(uint256,uint256)": "2a55205a",
    "safeTransferFrom(address,address,uint256)": "42842e0e",
    "safeTransferFrom(address,address,uint256,bytes)": "b88d4fde",
    "saleDetails()": "3474a4a6",
    "salesConfig()": "1d2c0b38",
    "setApprovalForAll(address,bool)": "a22cb465",
    "setFundsRecipient(address)": "10a7eb5d",
    "setMetadataRenderer(address,bytes)": "3bcdcc87",
    "setOwner(address)": "13af4035",
    "setSaleConfiguration(uint104,uint32,uint64,uint64,uint64,uint64,bytes32)": "ffdb7163",
    "supportsInterface(bytes4)": "01ffc9a7",
    "symbol()": "95d89b41",
    "tokenURI(uint256)": "c87b56dd",
    "totalSupply()": "18160ddd",
    "transferFrom(address,address,uint256)": "23b872dd",
    "updateMarketFilterSettings(bytes)": "bb20d857",
    "upgradeTo(address)": "3659cfe6",
    "upgradeToAndCall(address,bytes)": "4f1ef286",
    "withdraw()": "3ccfd60b",
    "zoraFeeForAmount(uint256)": "ee37be39",
    "zoraFeeManager()": "b6eb9c86"
  },
  "id": 54
}